{
  "_format": "hh-sol-artifact-1",
  "contractName": "SCROWLMarketplace",
  "sourceName": "contracts/SCROWLMarketplace.sol",
  "abi": [
    {
      "inputs": [],
      "stateMutability": "nonpayable",
      "type": "constructor"
    },
    {
      "inputs": [],
      "name": "ReentrancyGuardReentrantCall",
      "type": "error"
    },
    {
      "anonymous": false,
      "inputs": [
        {
          "indexed": true,
          "internalType": "uint256",
          "name": "listingId",
          "type": "uint256"
        },
        {
          "indexed": false,
          "internalType": "address",
          "name": "initiator",
          "type": "address"
        }
      ],
      "name": "DisputeInitiated",
      "type": "event"
    },
    {
      "anonymous": false,
      "inputs": [
        {
          "indexed": true,
          "internalType": "uint256",
          "name": "listingId",
          "type": "uint256"
        },
        {
          "indexed": true,
          "internalType": "address",
          "name": "seller",
          "type": "address"
        },
        {
          "indexed": false,
          "internalType": "address",
          "name": "nftContract",
          "type": "address"
        },
        {
          "indexed": false,
          "internalType": "uint256",
          "name": "tokenId",
          "type": "uint256"
        },
        {
          "indexed": false,
          "internalType": "uint256",
          "name": "price",
          "type": "uint256"
        },
        {
          "indexed": false,
          "internalType": "string",
          "name": "ensName",
          "type": "string"
        }
      ],
      "name": "Listed",
      "type": "event"
    },
    {
      "anonymous": false,
      "inputs": [
        {
          "indexed": true,
          "internalType": "uint256",
          "name": "listingId",
          "type": "uint256"
        }
      ],
      "name": "ListingCanceled",
      "type": "event"
    },
    {
      "anonymous": false,
      "inputs": [
        {
          "indexed": true,
          "internalType": "uint256",
          "name": "listingId",
          "type": "uint256"
        },
        {
          "indexed": true,
          "internalType": "address",
          "name": "buyer",
          "type": "address"
        },
        {
          "indexed": true,
          "internalType": "address",
          "name": "seller",
          "type": "address"
        },
        {
          "indexed": false,
          "internalType": "uint256",
          "name": "price",
          "type": "uint256"
        }
      ],
      "name": "Sale",
      "type": "event"
    },
    {
      "inputs": [
        {
          "internalType": "uint256",
          "name": "listingId",
          "type": "uint256"
        }
      ],
      "name": "buyAccount",
      "outputs": [],
      "stateMutability": "payable",
      "type": "function"
    },
    {
      "inputs": [
        {
          "internalType": "uint256",
          "name": "listingId",
          "type": "uint256"
        }
      ],
      "name": "cancelListing",
      "outputs": [],
      "stateMutability": "nonpayable",
      "type": "function"
    },
    {
      "inputs": [
        {
          "internalType": "uint256",
          "name": "listingId",
          "type": "uint256"
        }
      ],
      "name": "confirmReceiptAndClaim",
      "outputs": [],
      "stateMutability": "nonpayable",
      "type": "function"
    },
    {
      "inputs": [
        {
          "internalType": "uint256",
          "name": "listingId",
          "type": "uint256"
        }
      ],
      "name": "getListing",
      "outputs": [
        {
          "components": [
            {
              "internalType": "uint256",
              "name": "tokenId",
              "type": "uint256"
            },
            {
              "internalType": "address",
              "name": "seller",
              "type": "address"
            },
            {
              "internalType": "address",
              "name": "nftContract",
              "type": "address"
            },
            {
              "internalType": "uint256",
              "name": "price",
              "type": "uint256"
            },
            {
              "internalType": "bool",
              "name": "isActive",
              "type": "bool"
            },
            {
              "internalType": "bool",
              "name": "isSold",
              "type": "bool"
            },
            {
              "internalType": "string",
              "name": "ensName",
              "type": "string"
            }
          ],
          "internalType": "struct SCROWLMarketplace.Listing",
          "name": "",
          "type": "tuple"
        }
      ],
      "stateMutability": "view",
      "type": "function"
    },
    {
      "inputs": [
        {
          "internalType": "uint256",
          "name": "listingId",
          "type": "uint256"
        }
      ],
      "name": "initiateDispute",
      "outputs": [],
      "stateMutability": "nonpayable",
      "type": "function"
    },
    {
      "inputs": [
        {
          "internalType": "address",
          "name": "nftContract",
          "type": "address"
        },
        {
          "internalType": "uint256",
          "name": "tokenId",
          "type": "uint256"
        },
        {
          "internalType": "uint256",
          "name": "price",
          "type": "uint256"
        },
        {
          "internalType": "string",
          "name": "ensName",
          "type": "string"
        }
      ],
      "name": "listAccount",
      "outputs": [],
      "stateMutability": "nonpayable",
      "type": "function"
    },
    {
      "inputs": [],
      "name": "listingCount",
      "outputs": [
        {
          "internalType": "uint256",
          "name": "",
          "type": "uint256"
        }
      ],
      "stateMutability": "view",
      "type": "function"
    },
    {
      "inputs": [
        {
          "internalType": "uint256",
          "name": "",
          "type": "uint256"
        }
      ],
      "name": "listingEscrow",
      "outputs": [
        {
          "internalType": "address",
          "name": "",
          "type": "address"
        }
      ],
      "stateMutability": "view",
      "type": "function"
    },
    {
      "inputs": [
        {
          "internalType": "uint256",
          "name": "",
          "type": "uint256"
        }
      ],
      "name": "listings",
      "outputs": [
        {
          "internalType": "uint256",
          "name": "tokenId",
          "type": "uint256"
        },
        {
          "internalType": "address",
          "name": "seller",
          "type": "address"
        },
        {
          "internalType": "address",
          "name": "nftContract",
          "type": "address"
        },
        {
          "internalType": "uint256",
          "name": "price",
          "type": "uint256"
        },
        {
          "internalType": "bool",
          "name": "isActive",
          "type": "bool"
        },
        {
          "internalType": "bool",
          "name": "isSold",
          "type": "bool"
        },
        {
          "internalType": "string",
          "name": "ensName",
          "type": "string"
        }
      ],
      "stateMutability": "view",
      "type": "function"
    }
  ],
  "bytecode": "0x6080604052348015600f57600080fd5b50600160008190555060006002819055506121408061002f6000396000f3fe6080604052600436106100865760003560e01c80638d775c60116100595780638d775c6014610143578063a9b07c261461016c578063de74e57b14610197578063f2efbb01146101da578063f880a0f2146101f657610086565b8063107a274a1461008b578063305a67a8146100c857806342584c8c146100f157806371635c031461011a575b600080fd5b34801561009757600080fd5b506100b260048036038101906100ad9190611349565b610233565b6040516100bf919061150d565b60405180910390f35b3480156100d457600080fd5b506100ef60048036038101906100ea9190611349565b6103e8565b005b3480156100fd57600080fd5b5061011860048036038101906101139190611690565b610592565b005b34801561012657600080fd5b50610141600480360381019061013c9190611349565b610a26565b005b34801561014f57600080fd5b5061016a60048036038101906101659190611349565b610bc5565b005b34801561017857600080fd5b50610181610eb7565b60405161018e9190611722565b60405180910390f35b3480156101a357600080fd5b506101be60048036038101906101b99190611349565b610ebd565b6040516101d197969594939291906117a5565b60405180910390f35b6101f460048036038101906101ef9190611349565b610fe1565b005b34801561020257600080fd5b5061021d60048036038101906102189190611349565b61120f565b60405161022a919061181b565b60405180910390f35b61023b611292565b600160008381526020019081526020016000206040518060e0016040529081600082015481526020016001820160009054906101000a900473ffffffffffffffffffffffffffffffffffffffff1673ffffffffffffffffffffffffffffffffffffffff1673ffffffffffffffffffffffffffffffffffffffff1681526020016002820160009054906101000a900473ffffffffffffffffffffffffffffffffffffffff1673ffffffffffffffffffffffffffffffffffffffff1673ffffffffffffffffffffffffffffffffffffffff168152602001600382015481526020016004820160009054906101000a900460ff161515151581526020016004820160019054906101000a900460ff1615151515815260200160058201805461035f90611865565b80601f016020809104026020016040519081016040528092919081815260200182805461038b90611865565b80156103d85780601f106103ad576101008083540402835291602001916103d8565b820191906000526020600020905b8154815290600101906020018083116103bb57829003601f168201915b5050505050815250509050919050565b6103f0611242565b60006001600083815260200190815260200160002090503373ffffffffffffffffffffffffffffffffffffffff168160010160009054906101000a900473ffffffffffffffffffffffffffffffffffffffff1673ffffffffffffffffffffffffffffffffffffffff1614610499576040517f08c379a0000000000000000000000000000000000000000000000000000000008152600401610490906118e2565b60405180910390fd5b8060040160009054906101000a900460ff166104ea576040517f08c379a00000000000000000000000000000000000000000000000000000000081526004016104e19061194e565b60405180910390fd5b8060040160019054906101000a900460ff161561053c576040517f08c379a0000000000000000000000000000000000000000000000000000000008152600401610533906119ba565b60405180910390fd5b60008160040160006101000a81548160ff021916908315150217905550817f5d7a33421ffa4bc07eb8929c5ace6393d3aa5ec3775e4e2f442527876b7dbe8860405160405180910390a25061058f611288565b50565b61059a611242565b600082116105dd576040517f08c379a00000000000000000000000000000000000000000000000000000000081526004016105d490611a26565b60405180910390fd5b60008490503373ffffffffffffffffffffffffffffffffffffffff168173ffffffffffffffffffffffffffffffffffffffff16636352211e866040518263ffffffff1660e01b81526004016106329190611722565b602060405180830381865afa15801561064f573d6000803e3d6000fd5b505050506040513d601f19601f820116820180604052508101906106739190611a5b565b73ffffffffffffffffffffffffffffffffffffffff16146106c9576040517f08c379a00000000000000000000000000000000000000000000000000000000081526004016106c090611ad4565b60405180910390fd5b3073ffffffffffffffffffffffffffffffffffffffff168173ffffffffffffffffffffffffffffffffffffffff1663081812fc866040518263ffffffff1660e01b81526004016107199190611722565b602060405180830381865afa158015610736573d6000803e3d6000fd5b505050506040513d601f19601f8201168201806040525081019061075a9190611a5b565b73ffffffffffffffffffffffffffffffffffffffff1614806107f457508073ffffffffffffffffffffffffffffffffffffffff1663e985e9c533306040518363ffffffff1660e01b81526004016107b2929190611af4565b602060405180830381865afa1580156107cf573d6000803e3d6000fd5b505050506040513d601f19601f820116820180604052508101906107f39190611b49565b5b610833576040517f08c379a000000000000000000000000000000000000000000000000000000000815260040161082a90611bc2565b60405180910390fd5b6002600081548092919061084690611c11565b91905055506040518060e001604052808581526020013373ffffffffffffffffffffffffffffffffffffffff1681526020018673ffffffffffffffffffffffffffffffffffffffff168152602001848152602001600115158152602001600015158152602001838152506001600060025481526020019081526020016000206000820151816000015560208201518160010160006101000a81548173ffffffffffffffffffffffffffffffffffffffff021916908373ffffffffffffffffffffffffffffffffffffffff16021790555060408201518160020160006101000a81548173ffffffffffffffffffffffffffffffffffffffff021916908373ffffffffffffffffffffffffffffffffffffffff1602179055506060820151816003015560808201518160040160006101000a81548160ff02191690831515021790555060a08201518160040160016101000a81548160ff02191690831515021790555060c08201518160050190816109bc9190611e05565b509050503373ffffffffffffffffffffffffffffffffffffffff166002547fbe2cd1ed3f389009e27b1ad80e88812f7c66ca4caef68d6b7e25496cb65d14dd87878787604051610a0f9493929190611ed7565b60405180910390a350610a20611288565b50505050565b60006001600083815260200190815260200160002090508060010160009054906101000a900473ffffffffffffffffffffffffffffffffffffffff1673ffffffffffffffffffffffffffffffffffffffff163373ffffffffffffffffffffffffffffffffffffffff161480610af957506003600083815260200190815260200160002060009054906101000a900473ffffffffffffffffffffffffffffffffffffffff1673ffffffffffffffffffffffffffffffffffffffff163373ffffffffffffffffffffffffffffffffffffffff16145b610b38576040517f08c379a0000000000000000000000000000000000000000000000000000000008152600401610b2f90611f6f565b60405180910390fd5b8060040160019054906101000a900460ff16610b89576040517f08c379a0000000000000000000000000000000000000000000000000000000008152600401610b8090611fdb565b60405180910390fd5b817f36c922bd8d190e14998569179446c5c73a76b53b93263c8399be1877e4ea9ed533604051610bb9919061181b565b60405180910390a25050565b610bcd611242565b3373ffffffffffffffffffffffffffffffffffffffff166003600083815260200190815260200160002060009054906101000a900473ffffffffffffffffffffffffffffffffffffffff1673ffffffffffffffffffffffffffffffffffffffff1614610c6e576040517f08c379a0000000000000000000000000000000000000000000000000000000008152600401610c6590612047565b60405180910390fd5b60006001600083815260200190815260200160002090508060040160019054906101000a900460ff16610cd6576040517f08c379a0000000000000000000000000000000000000000000000000000000008152600401610ccd90611fdb565b60405180910390fd5b60008160020160009054906101000a900473ffffffffffffffffffffffffffffffffffffffff1690508073ffffffffffffffffffffffffffffffffffffffff166323b872dd8360010160009054906101000a900473ffffffffffffffffffffffffffffffffffffffff163385600001546040518463ffffffff1660e01b8152600401610d6493929190612067565b600060405180830381600087803b158015610d7e57600080fd5b505af1158015610d92573d6000803e3d6000fd5b505050508073ffffffffffffffffffffffffffffffffffffffff16636dd4a67483600001546040518263ffffffff1660e01b8152600401610dd39190611722565b600060405180830381600087803b158015610ded57600080fd5b505af1158015610e01573d6000803e3d6000fd5b505050508160010160009054906101000a900473ffffffffffffffffffffffffffffffffffffffff1673ffffffffffffffffffffffffffffffffffffffff166108fc83600301549081150290604051600060405180830381858888f19350505050158015610e73573d6000803e3d6000fd5b506003600084815260200190815260200160002060006101000a81549073ffffffffffffffffffffffffffffffffffffffff02191690555050610eb4611288565b50565b60025481565b60016020528060005260406000206000915090508060000154908060010160009054906101000a900473ffffffffffffffffffffffffffffffffffffffff16908060020160009054906101000a900473ffffffffffffffffffffffffffffffffffffffff16908060030154908060040160009054906101000a900460ff16908060040160019054906101000a900460ff1690806005018054610f5e90611865565b80601f0160208091040260200160405190810160405280929190818152602001828054610f8a90611865565b8015610fd75780601f10610fac57610100808354040283529160200191610fd7565b820191906000526020600020905b815481529060010190602001808311610fba57829003601f168201915b5050505050905087565b610fe9611242565b60006001600083815260200190815260200160002090508060040160009054906101000a900460ff16611051576040517f08c379a00000000000000000000000000000000000000000000000000000000081526004016110489061194e565b60405180910390fd5b8060040160019054906101000a900460ff16156110a3576040517f08c379a000000000000000000000000000000000000000000000000000000000815260040161109a906119ba565b60405180910390fd5b806003015434146110e9576040517f08c379a00000000000000000000000000000000000000000000000000000000081526004016110e0906120ea565b60405180910390fd5b60008160040160006101000a81548160ff02191690831515021790555060018160040160016101000a81548160ff021916908315150217905550336003600084815260200190815260200160002060006101000a81548173ffffffffffffffffffffffffffffffffffffffff021916908373ffffffffffffffffffffffffffffffffffffffff1602179055508060010160009054906101000a900473ffffffffffffffffffffffffffffffffffffffff1673ffffffffffffffffffffffffffffffffffffffff163373ffffffffffffffffffffffffffffffffffffffff16837f88863d5e20f64464b554931394e2e4b6f09c10015147215bf26b3ba5070acebe84600301546040516111fb9190611722565b60405180910390a45061120c611288565b50565b60036020528060005260406000206000915054906101000a900473ffffffffffffffffffffffffffffffffffffffff1681565b60026000540361127e576040517f3ee5aeb500000000000000000000000000000000000000000000000000000000815260040160405180910390fd5b6002600081905550565b6001600081905550565b6040518060e0016040528060008152602001600073ffffffffffffffffffffffffffffffffffffffff168152602001600073ffffffffffffffffffffffffffffffffffffffff16815260200160008152602001600015158152602001600015158152602001606081525090565b6000604051905090565b600080fd5b600080fd5b6000819050919050565b61132681611313565b811461133157600080fd5b50565b6000813590506113438161131d565b92915050565b60006020828403121561135f5761135e611309565b5b600061136d84828501611334565b91505092915050565b61137f81611313565b82525050565b600073ffffffffffffffffffffffffffffffffffffffff82169050919050565b60006113b082611385565b9050919050565b6113c0816113a5565b82525050565b60008115159050919050565b6113db816113c6565b82525050565b600081519050919050565b600082825260208201905092915050565b60005b8381101561141b578082015181840152602081019050611400565b60008484015250505050565b6000601f19601f8301169050919050565b6000611443826113e1565b61144d81856113ec565b935061145d8185602086016113fd565b61146681611427565b840191505092915050565b600060e0830160008301516114896000860182611376565b50602083015161149c60208601826113b7565b5060408301516114af60408601826113b7565b5060608301516114c26060860182611376565b5060808301516114d560808601826113d2565b5060a08301516114e860a08601826113d2565b5060c083015184820360c08601526115008282611438565b9150508091505092915050565b600060208201905081810360008301526115278184611471565b905092915050565b611538816113a5565b811461154357600080fd5b50565b6000813590506115558161152f565b92915050565b600080fd5b600080fd5b7f4e487b7100000000000000000000000000000000000000000000000000000000600052604160045260246000fd5b61159d82611427565b810181811067ffffffffffffffff821117156115bc576115bb611565565b5b80604052505050565b60006115cf6112ff565b90506115db8282611594565b919050565b600067ffffffffffffffff8211156115fb576115fa611565565b5b61160482611427565b9050602081019050919050565b82818337600083830152505050565b600061163361162e846115e0565b6115c5565b90508281526020810184848401111561164f5761164e611560565b5b61165a848285611611565b509392505050565b600082601f8301126116775761167661155b565b5b8135611687848260208601611620565b91505092915050565b600080600080608085870312156116aa576116a9611309565b5b60006116b887828801611546565b94505060206116c987828801611334565b93505060406116da87828801611334565b925050606085013567ffffffffffffffff8111156116fb576116fa61130e565b5b61170787828801611662565b91505092959194509250565b61171c81611313565b82525050565b60006020820190506117376000830184611713565b92915050565b611746816113a5565b82525050565b611755816113c6565b82525050565b600082825260208201905092915050565b6000611777826113e1565b611781818561175b565b93506117918185602086016113fd565b61179a81611427565b840191505092915050565b600060e0820190506117ba600083018a611713565b6117c7602083018961173d565b6117d4604083018861173d565b6117e16060830187611713565b6117ee608083018661174c565b6117fb60a083018561174c565b81810360c083015261180d818461176c565b905098975050505050505050565b6000602082019050611830600083018461173d565b92915050565b7f4e487b7100000000000000000000000000000000000000000000000000000000600052602260045260246000fd5b6000600282049050600182168061187d57607f821691505b6020821081036118905761188f611836565b5b50919050565b7f4e6f742073656c6c657200000000000000000000000000000000000000000000600082015250565b60006118cc600a8361175b565b91506118d782611896565b602082019050919050565b600060208201905081810360008301526118fb816118bf565b9050919050565b7f4e6f742061637469766500000000000000000000000000000000000000000000600082015250565b6000611938600a8361175b565b915061194382611902565b602082019050919050565b600060208201905081810360008301526119678161192b565b9050919050565b7f416c726561647920736f6c640000000000000000000000000000000000000000600082015250565b60006119a4600c8361175b565b91506119af8261196e565b602082019050919050565b600060208201905081810360008301526119d381611997565b9050919050565b7f5072696365206d757374206265203e2030000000000000000000000000000000600082015250565b6000611a1060118361175b565b9150611a1b826119da565b602082019050919050565b60006020820190508181036000830152611a3f81611a03565b9050919050565b600081519050611a558161152f565b92915050565b600060208284031215611a7157611a70611309565b5b6000611a7f84828501611a46565b91505092915050565b7f4e6f74206f776e65720000000000000000000000000000000000000000000000600082015250565b6000611abe60098361175b565b9150611ac982611a88565b602082019050919050565b60006020820190508181036000830152611aed81611ab1565b9050919050565b6000604082019050611b09600083018561173d565b611b16602083018461173d565b9392505050565b611b26816113c6565b8114611b3157600080fd5b50565b600081519050611b4381611b1d565b92915050565b600060208284031215611b5f57611b5e611309565b5b6000611b6d84828501611b34565b91505092915050565b7f4e6f7420617070726f7665640000000000000000000000000000000000000000600082015250565b6000611bac600c8361175b565b9150611bb782611b76565b602082019050919050565b60006020820190508181036000830152611bdb81611b9f565b9050919050565b7f4e487b7100000000000000000000000000000000000000000000000000000000600052601160045260246000fd5b6000611c1c82611313565b91507fffffffffffffffffffffffffffffffffffffffffffffffffffffffffffffffff8203611c4e57611c4d611be2565b5b600182019050919050565b60008190508160005260206000209050919050565b60006020601f8301049050919050565b600082821b905092915050565b600060088302611cbb7fffffffffffffffffffffffffffffffffffffffffffffffffffffffffffffffff82611c7e565b611cc58683611c7e565b95508019841693508086168417925050509392505050565b6000819050919050565b6000611d02611cfd611cf884611313565b611cdd565b611313565b9050919050565b6000819050919050565b611d1c83611ce7565b611d30611d2882611d09565b848454611c8b565b825550505050565b600090565b611d45611d38565b611d50818484611d13565b505050565b5b81811015611d7457611d69600082611d3d565b600181019050611d56565b5050565b601f821115611db957611d8a81611c59565b611d9384611c6e565b81016020851015611da2578190505b611db6611dae85611c6e565b830182611d55565b50505b505050565b600082821c905092915050565b6000611ddc60001984600802611dbe565b1980831691505092915050565b6000611df58383611dcb565b9150826002028217905092915050565b611e0e826113e1565b67ffffffffffffffff811115611e2757611e26611565565b5b611e318254611865565b611e3c828285611d78565b600060209050601f831160018114611e6f5760008415611e5d578287015190505b611e678582611de9565b865550611ecf565b601f198416611e7d86611c59565b60005b82811015611ea557848901518255600182019150602085019450602081019050611e80565b86831015611ec25784890151611ebe601f891682611dcb565b8355505b6001600288020188555050505b505050505050565b6000608082019050611eec600083018761173d565b611ef96020830186611713565b611f066040830185611713565b8181036060830152611f18818461176c565b905095945050505050565b7f4e6f7420617574686f72697a6564000000000000000000000000000000000000600082015250565b6000611f59600e8361175b565b9150611f6482611f23565b602082019050919050565b60006020820190508181036000830152611f8881611f4c565b9050919050565b7f4e6f7420736f6c64000000000000000000000000000000000000000000000000600082015250565b6000611fc560088361175b565b9150611fd082611f8f565b602082019050919050565b60006020820190508181036000830152611ff481611fb8565b9050919050565b7f4e6f742062757965720000000000000000000000000000000000000000000000600082015250565b600061203160098361175b565b915061203c82611ffb565b602082019050919050565b6000602082019050818103600083015261206081612024565b9050919050565b600060608201905061207c600083018661173d565b612089602083018561173d565b6120966040830184611713565b949350505050565b7f57726f6e67207072696365000000000000000000000000000000000000000000600082015250565b60006120d4600b8361175b565b91506120df8261209e565b602082019050919050565b60006020820190508181036000830152612103816120c7565b905091905056fea26469706673582212200e4c2f3d0c8d31521fb9bc8117fa5586efbb0337bcf9f863d35fa78533cd50b464736f6c634300081b0033",
  "linkReferences": {},
  "deployedLinkReferences": {}
}