{
  "_format": "hh-sol-artifact-1",
  "contractName": "GameTopUp",
  "sourceName": "contracts/GameTopUp.sol",
  "abi": [
    {
      "inputs": [],
      "stateMutability": "nonpayable",
      "type": "constructor"
    },
    {
      "inputs": [
        {
          "internalType": "address",
          "name": "owner",
          "type": "address"
        }
      ],
      "name": "OwnableInvalidOwner",
      "type": "error"
    },
    {
      "inputs": [
        {
          "internalType": "address",
          "name": "account",
          "type": "address"
        }
      ],
      "name": "OwnableUnauthorizedAccount",
      "type": "error"
    },
    {
      "inputs": [],
      "name": "ReentrancyGuardReentrantCall",
      "type": "error"
    },
    {
      "anonymous": false,
      "inputs": [
        {
          "indexed": false,
          "internalType": "string",
          "name": "gameId",
          "type": "string"
        },
        {
          "indexed": false,
          "internalType": "string",
          "name": "name",
          "type": "string"
        },
        {
          "indexed": false,
          "internalType": "uint256",
          "name": "rate",
          "type": "uint256"
        }
      ],
      "name": "CurrencyAdded",
      "type": "event"
    },
    {
      "anonymous": false,
      "inputs": [
        {
          "indexed": false,
          "internalType": "string",
          "name": "gameId",
          "type": "string"
        },
        {
          "indexed": false,
          "internalType": "uint256",
          "name": "newRate",
          "type": "uint256"
        }
      ],
      "name": "CurrencyUpdated",
      "type": "event"
    },
    {
      "anonymous": false,
      "inputs": [
        {
          "indexed": true,
          "internalType": "address",
          "name": "previousOwner",
          "type": "address"
        },
        {
          "indexed": true,
          "internalType": "address",
          "name": "newOwner",
          "type": "address"
        }
      ],
      "name": "OwnershipTransferred",
      "type": "event"
    },
    {
      "anonymous": false,
      "inputs": [
        {
          "indexed": true,
          "internalType": "address",
          "name": "buyer",
          "type": "address"
        },
        {
          "indexed": false,
          "internalType": "string",
          "name": "gameId",
          "type": "string"
        },
        {
          "indexed": false,
          "internalType": "string",
          "name": "userId",
          "type": "string"
        },
        {
          "indexed": false,
          "internalType": "uint256",
          "name": "amount",
          "type": "uint256"
        },
        {
          "indexed": false,
          "internalType": "uint256",
          "name": "cost",
          "type": "uint256"
        },
        {
          "indexed": false,
          "internalType": "uint256",
          "name": "timestamp",
          "type": "uint256"
        }
      ],
      "name": "TopUpCompleted",
      "type": "event"
    },
    {
      "inputs": [
        {
          "internalType": "string",
          "name": "gameId",
          "type": "string"
        },
        {
          "internalType": "string",
          "name": "name",
          "type": "string"
        },
        {
          "internalType": "uint256",
          "name": "rate",
          "type": "uint256"
        }
      ],
      "name": "addGameCurrency",
      "outputs": [],
      "stateMutability": "nonpayable",
      "type": "function"
    },
    {
      "inputs": [
        {
          "internalType": "string",
          "name": "gameId",
          "type": "string"
        },
        {
          "internalType": "uint256",
          "name": "amount",
          "type": "uint256"
        }
      ],
      "name": "calculateCost",
      "outputs": [
        {
          "internalType": "uint256",
          "name": "",
          "type": "uint256"
        }
      ],
      "stateMutability": "view",
      "type": "function"
    },
    {
      "inputs": [
        {
          "internalType": "string",
          "name": "",
          "type": "string"
        }
      ],
      "name": "gameCurrencies",
      "outputs": [
        {
          "internalType": "string",
          "name": "name",
          "type": "string"
        },
        {
          "internalType": "uint256",
          "name": "rate",
          "type": "uint256"
        },
        {
          "internalType": "bool",
          "name": "isActive",
          "type": "bool"
        }
      ],
      "stateMutability": "view",
      "type": "function"
    },
    {
      "inputs": [],
      "name": "getContractBalance",
      "outputs": [
        {
          "internalType": "uint256",
          "name": "",
          "type": "uint256"
        }
      ],
      "stateMutability": "view",
      "type": "function"
    },
    {
      "inputs": [
        {
          "internalType": "string",
          "name": "gameId",
          "type": "string"
        }
      ],
      "name": "getGameCurrency",
      "outputs": [
        {
          "components": [
            {
              "internalType": "string",
              "name": "name",
              "type": "string"
            },
            {
              "internalType": "uint256",
              "name": "rate",
              "type": "uint256"
            },
            {
              "internalType": "bool",
              "name": "isActive",
              "type": "bool"
            }
          ],
          "internalType": "struct GameTopUp.GameCurrency",
          "name": "",
          "type": "tuple"
        }
      ],
      "stateMutability": "view",
      "type": "function"
    },
    {
      "inputs": [
        {
          "internalType": "address",
          "name": "user",
          "type": "address"
        }
      ],
      "name": "getUserPurchases",
      "outputs": [
        {
          "components": [
            {
              "internalType": "address",
              "name": "buyer",
              "type": "address"
            },
            {
              "internalType": "string",
              "name": "gameId",
              "type": "string"
            },
            {
              "internalType": "string",
              "name": "userId",
              "type": "string"
            },
            {
              "internalType": "uint256",
              "name": "amount",
              "type": "uint256"
            },
            {
              "internalType": "uint256",
              "name": "cost",
              "type": "uint256"
            },
            {
              "internalType": "uint256",
              "name": "timestamp",
              "type": "uint256"
            }
          ],
          "internalType": "struct GameTopUp.Purchase[]",
          "name": "",
          "type": "tuple[]"
        }
      ],
      "stateMutability": "view",
      "type": "function"
    },
    {
      "inputs": [],
      "name": "owner",
      "outputs": [
        {
          "internalType": "address",
          "name": "",
          "type": "address"
        }
      ],
      "stateMutability": "view",
      "type": "function"
    },
    {
      "inputs": [
        {
          "internalType": "string",
          "name": "gameId",
          "type": "string"
        },
        {
          "internalType": "string",
          "name": "userId",
          "type": "string"
        },
        {
          "internalType": "uint256",
          "name": "amount",
          "type": "uint256"
        }
      ],
      "name": "purchaseTopUp",
      "outputs": [],
      "stateMutability": "payable",
      "type": "function"
    },
    {
      "inputs": [],
      "name": "renounceOwnership",
      "outputs": [],
      "stateMutability": "nonpayable",
      "type": "function"
    },
    {
      "inputs": [
        {
          "internalType": "address",
          "name": "newOwner",
          "type": "address"
        }
      ],
      "name": "transferOwnership",
      "outputs": [],
      "stateMutability": "nonpayable",
      "type": "function"
    },
    {
      "inputs": [
        {
          "internalType": "string",
          "name": "gameId",
          "type": "string"
        },
        {
          "internalType": "uint256",
          "name": "newRate",
          "type": "uint256"
        }
      ],
      "name": "updateCurrencyRate",
      "outputs": [],
      "stateMutability": "nonpayable",
      "type": "function"
    },
    {
      "inputs": [
        {
          "internalType": "address",
          "name": "",
          "type": "address"
        },
        {
          "internalType": "uint256",
          "name": "",
          "type": "uint256"
        }
      ],
      "name": "userPurchases",
      "outputs": [
        {
          "internalType": "address",
          "name": "buyer",
          "type": "address"
        },
        {
          "internalType": "string",
          "name": "gameId",
          "type": "string"
        },
        {
          "internalType": "string",
          "name": "userId",
          "type": "string"
        },
        {
          "internalType": "uint256",
          "name": "amount",
          "type": "uint256"
        },
        {
          "internalType": "uint256",
          "name": "cost",
          "type": "uint256"
        },
        {
          "internalType": "uint256",
          "name": "timestamp",
          "type": "uint256"
        }
      ],
      "stateMutability": "view",
      "type": "function"
    },
    {
      "inputs": [],
      "name": "withdraw",
      "outputs": [],
      "stateMutability": "nonpayable",
      "type": "function"
    }
  ],
  "bytecode": "0x608060405234801561001057600080fd5b5033600073ffffffffffffffffffffffffffffffffffffffff168173ffffffffffffffffffffffffffffffffffffffff16036100845760006040517f1e4fbdf700000000000000000000000000000000000000000000000000000000815260040161007b919061052e565b60405180910390fd5b6100938161022360201b60201c565b506001808190555061011c6040518060400160405280600881526020017f76616c6f72616e740000000000000000000000000000000000000000000000008152506040518060400160405280600281526020017f5650000000000000000000000000000000000000000000000000000000000000815250655af3107a40006102e760201b60201c565b61019d6040518060400160405280600481526020017f70756267000000000000000000000000000000000000000000000000000000008152506040518060400160405280600281526020017f5543000000000000000000000000000000000000000000000000000000000000815250652d79883d20006102e760201b60201c565b61021e6040518060400160405280600481526020017f6d6c6262000000000000000000000000000000000000000000000000000000008152506040518060400160405280600881526020017f4469616d6f6e64730000000000000000000000000000000000000000000000008152506544364c5bb0006102e760201b60201c565b610a03565b60008060009054906101000a900473ffffffffffffffffffffffffffffffffffffffff169050816000806101000a81548173ffffffffffffffffffffffffffffffffffffffff021916908373ffffffffffffffffffffffffffffffffffffffff1602179055508173ffffffffffffffffffffffffffffffffffffffff168173ffffffffffffffffffffffffffffffffffffffff167f8be0079c531659141344cd1fd0a4f28419497f9722a3daafe3b4186f6b6457e060405160405180910390a35050565b6102f561042360201b60201c565b60028360405161030591906105ba565b908152602001604051809103902060020160009054906101000a900460ff1615610364576040517f08c379a000000000000000000000000000000000000000000000000000000000815260040161035b9061062e565b60405180910390fd5b60405180606001604052808381526020018281526020016001151581525060028460405161039291906105ba565b908152602001604051809103902060008201518160000190816103b59190610893565b506020820151816001015560408201518160020160006101000a81548160ff0219169083151502179055509050507f601ee270be76198991ba6e88f3a7c87154f651229347d29ae540d85ca462c4b1838383604051610416939291906109be565b60405180910390a1505050565b6104316104bc60201b60201c565b73ffffffffffffffffffffffffffffffffffffffff166104556104c460201b60201c565b73ffffffffffffffffffffffffffffffffffffffff16146104ba5761047e6104bc60201b60201c565b6040517f118cdaa70000000000000000000000000000000000000000000000000000000081526004016104b1919061052e565b60405180910390fd5b565b600033905090565b60008060009054906101000a900473ffffffffffffffffffffffffffffffffffffffff16905090565b600073ffffffffffffffffffffffffffffffffffffffff82169050919050565b6000610518826104ed565b9050919050565b6105288161050d565b82525050565b6000602082019050610543600083018461051f565b92915050565b600081519050919050565b600081905092915050565b60005b8381101561057d578082015181840152602081019050610562565b60008484015250505050565b600061059482610549565b61059e8185610554565b93506105ae81856020860161055f565b80840191505092915050565b60006105c68284610589565b915081905092915050565b600082825260208201905092915050565b7f47616d652063757272656e637920616c72656164792065786973747300000000600082015250565b6000610618601c836105d1565b9150610623826105e2565b602082019050919050565b600060208201905081810360008301526106478161060b565b9050919050565b7f4e487b7100000000000000000000000000000000000000000000000000000000600052604160045260246000fd5b7f4e487b7100000000000000000000000000000000000000000000000000000000600052602260045260246000fd5b600060028204905060018216806106c457607f821691505b6020821081036106d7576106d661067d565b5b50919050565b60008190508160005260206000209050919050565b60006020601f8301049050919050565b600082821b905092915050565b60006008830261073f7fffffffffffffffffffffffffffffffffffffffffffffffffffffffffffffffff82610702565b6107498683610702565b95508019841693508086168417925050509392505050565b6000819050919050565b6000819050919050565b600061079061078b61078684610761565b61076b565b610761565b9050919050565b6000819050919050565b6107aa83610775565b6107be6107b682610797565b84845461070f565b825550505050565b600090565b6107d36107c6565b6107de8184846107a1565b505050565b5b81811015610802576107f76000826107cb565b6001810190506107e4565b5050565b601f82111561084757610818816106dd565b610821846106f2565b81016020851015610830578190505b61084461083c856106f2565b8301826107e3565b50505b505050565b600082821c905092915050565b600061086a6000198460080261084c565b1980831691505092915050565b60006108838383610859565b9150826002028217905092915050565b61089c82610549565b67ffffffffffffffff8111156108b5576108b461064e565b5b6108bf82546106ac565b6108ca828285610806565b600060209050601f8311600181146108fd57600084156108eb578287015190505b6108f58582610877565b86555061095d565b601f19841661090b866106dd565b60005b828110156109335784890151825560018201915060208501945060208101905061090e565b86831015610950578489015161094c601f891682610859565b8355505b6001600288020188555050505b505050505050565b6000601f19601f8301169050919050565b600061098182610549565b61098b81856105d1565b935061099b81856020860161055f565b6109a481610965565b840191505092915050565b6109b881610761565b82525050565b600060608201905081810360008301526109d88186610976565b905081810360208301526109ec8185610976565b90506109fb60408301846109af565b949350505050565b611f2280610a126000396000f3fe6080604052600436106100c25760003560e01c80638da5cb5b1161007f578063c6e5d8f611610059578063c6e5d8f614610233578063cf2c033414610270578063e4ba4351146102b2578063f2fde38b146102f1576100c2565b80638da5cb5b146101a2578063b078d55a146101cd578063b9440151146101f6576100c2565b80633b88f36b146100c75780633ccfd60b146101045780636cd6bde01461011b5780636f9fb98a14610144578063715018a61461016f57806378dcf02b14610186575b600080fd5b3480156100d357600080fd5b506100ee60048036038101906100e99190611309565b61031a565b6040516100fb9190611374565b60405180910390f35b34801561011057600080fd5b506101196103bf565b005b34801561012757600080fd5b50610142600480360381019061013d9190611309565b610417565b005b34801561015057600080fd5b506101596104f0565b6040516101669190611374565b60405180910390f35b34801561017b57600080fd5b50610184610500565b005b6101a0600480360381019061019b919061138f565b610514565b005b3480156101ae57600080fd5b506101b76107de565b6040516101c4919061145b565b60405180910390f35b3480156101d957600080fd5b506101f460048036038101906101ef919061138f565b610807565b005b34801561020257600080fd5b5061021d60048036038101906102189190611476565b61093d565b60405161022a91906115b8565b60405180910390f35b34801561023f57600080fd5b5061025a60048036038101906102559190611606565b610a9a565b6040516102679190611794565b60405180910390f35b34801561027c57600080fd5b50610297600480360381019061029291906117b6565b610cd0565b6040516102a996959493929190611840565b60405180910390f35b3480156102be57600080fd5b506102d960048036038101906102d49190611476565b610e59565b6040516102e8939291906118be565b60405180910390f35b3480156102fd57600080fd5b5061031860048036038101906103139190611606565b610f2e565b005b600060028360405161032c9190611938565b908152602001604051809103902060020160009054906101000a900460ff1661038a576040517f08c379a00000000000000000000000000000000000000000000000000000000081526004016103819061199b565b60405180910390fd5b60028360405161039a9190611938565b908152602001604051809103902060010154826103b791906119ea565b905092915050565b6103c7610fb4565b6103cf6107de565b73ffffffffffffffffffffffffffffffffffffffff166108fc479081150290604051600060405180830381858888f19350505050158015610414573d6000803e3d6000fd5b50565b61041f610fb4565b60028260405161042f9190611938565b908152602001604051809103902060020160009054906101000a900460ff1661048d576040517f08c379a00000000000000000000000000000000000000000000000000000000081526004016104849061199b565b60405180910390fd5b8060028360405161049e9190611938565b9081526020016040518091039020600101819055507f282b2e8224ed7cbe7b4fbadba7dbff74828ff1798173e01ea65291b391db953e82826040516104e4929190611a2c565b60405180910390a15050565b60006104fa610fb4565b47905090565b610508610fb4565b610512600061103b565b565b61051c6110ff565b60028360405161052c9190611938565b908152602001604051809103902060020160009054906101000a900460ff1661058a576040517f08c379a00000000000000000000000000000000000000000000000000000000081526004016105819061199b565b60405180910390fd5b6000610596848361031a565b9050803410156105db576040517f08c379a00000000000000000000000000000000000000000000000000000000081526004016105d290611aa8565b60405180910390fd5b60006040518060c001604052803373ffffffffffffffffffffffffffffffffffffffff168152602001868152602001858152602001848152602001838152602001428152509050600360003373ffffffffffffffffffffffffffffffffffffffff1673ffffffffffffffffffffffffffffffffffffffff16815260200190815260200160002081908060018154018082558091505060019003906000526020600020906006020160009091909190915060008201518160000160006101000a81548173ffffffffffffffffffffffffffffffffffffffff021916908373ffffffffffffffffffffffffffffffffffffffff16021790555060208201518160010190816106e79190611cd4565b5060408201518160020190816106fd9190611cd4565b50606082015181600301556080820151816004015560a08201518160050155505081341115610779573373ffffffffffffffffffffffffffffffffffffffff166108fc833461074c9190611da6565b9081150290604051600060405180830381858888f19350505050158015610777573d6000803e3d6000fd5b505b3373ffffffffffffffffffffffffffffffffffffffff167fc1a78bde6eafd1c5dd1280de09f222b2f394b746abd513a7ea82b87dc584f5c186868686426040516107c7959493929190611dda565b60405180910390a250506107d9611145565b505050565b60008060009054906101000a900473ffffffffffffffffffffffffffffffffffffffff16905090565b61080f610fb4565b60028360405161081f9190611938565b908152602001604051809103902060020160009054906101000a900460ff161561087e576040517f08c379a000000000000000000000000000000000000000000000000000000000815260040161087590611e87565b60405180910390fd5b6040518060600160405280838152602001828152602001600115158152506002846040516108ac9190611938565b908152602001604051809103902060008201518160000190816108cf9190611cd4565b506020820151816001015560408201518160020160006101000a81548160ff0219169083151502179055509050507f601ee270be76198991ba6e88f3a7c87154f651229347d29ae540d85ca462c4b183838360405161093093929190611ea7565b60405180910390a1505050565b610945611156565b6002826040516109559190611938565b908152602001604051809103902060020160009054906101000a900460ff166109b3576040517f08c379a00000000000000000000000000000000000000000000000000000000081526004016109aa9061199b565b60405180910390fd5b6002826040516109c39190611938565b90815260200160405180910390206040518060600160405290816000820180546109ec90611af7565b80601f0160208091040260200160405190810160405280929190818152602001828054610a1890611af7565b8015610a655780601f10610a3a57610100808354040283529160200191610a65565b820191906000526020600020905b815481529060010190602001808311610a4857829003601f168201915b50505050508152602001600182015481526020016002820160009054906101000a900460ff1615151515815250509050919050565b6060600360008373ffffffffffffffffffffffffffffffffffffffff1673ffffffffffffffffffffffffffffffffffffffff168152602001908152602001600020805480602002602001604051908101604052809291908181526020016000905b82821015610cc557838290600052602060002090600602016040518060c00160405290816000820160009054906101000a900473ffffffffffffffffffffffffffffffffffffffff1673ffffffffffffffffffffffffffffffffffffffff1673ffffffffffffffffffffffffffffffffffffffff168152602001600182018054610b8490611af7565b80601f0160208091040260200160405190810160405280929190818152602001828054610bb090611af7565b8015610bfd5780601f10610bd257610100808354040283529160200191610bfd565b820191906000526020600020905b815481529060010190602001808311610be057829003601f168201915b50505050508152602001600282018054610c1690611af7565b80601f0160208091040260200160405190810160405280929190818152602001828054610c4290611af7565b8015610c8f5780601f10610c6457610100808354040283529160200191610c8f565b820191906000526020600020905b815481529060010190602001808311610c7257829003601f168201915b50505050508152602001600382015481526020016004820154815260200160058201548152505081526020019060010190610afb565b505050509050919050565b60036020528160005260406000208181548110610cec57600080fd5b9060005260206000209060060201600091509150508060000160009054906101000a900473ffffffffffffffffffffffffffffffffffffffff1690806001018054610d3690611af7565b80601f0160208091040260200160405190810160405280929190818152602001828054610d6290611af7565b8015610daf5780601f10610d8457610100808354040283529160200191610daf565b820191906000526020600020905b815481529060010190602001808311610d9257829003601f168201915b505050505090806002018054610dc490611af7565b80601f0160208091040260200160405190810160405280929190818152602001828054610df090611af7565b8015610e3d5780601f10610e1257610100808354040283529160200191610e3d565b820191906000526020600020905b815481529060010190602001808311610e2057829003601f168201915b5050505050908060030154908060040154908060050154905086565b600281805160208101820180518482526020830160208501208183528095505050505050600091509050806000018054610e9290611af7565b80601f0160208091040260200160405190810160405280929190818152602001828054610ebe90611af7565b8015610f0b5780601f10610ee057610100808354040283529160200191610f0b565b820191906000526020600020905b815481529060010190602001808311610eee57829003601f168201915b5050505050908060010154908060020160009054906101000a900460ff16905083565b610f36610fb4565b600073ffffffffffffffffffffffffffffffffffffffff168173ffffffffffffffffffffffffffffffffffffffff1603610fa85760006040517f1e4fbdf7000000000000000000000000000000000000000000000000000000008152600401610f9f919061145b565b60405180910390fd5b610fb18161103b565b50565b610fbc61114e565b73ffffffffffffffffffffffffffffffffffffffff16610fda6107de565b73ffffffffffffffffffffffffffffffffffffffff161461103957610ffd61114e565b6040517f118cdaa7000000000000000000000000000000000000000000000000000000008152600401611030919061145b565b60405180910390fd5b565b60008060009054906101000a900473ffffffffffffffffffffffffffffffffffffffff169050816000806101000a81548173ffffffffffffffffffffffffffffffffffffffff021916908373ffffffffffffffffffffffffffffffffffffffff1602179055508173ffffffffffffffffffffffffffffffffffffffff168173ffffffffffffffffffffffffffffffffffffffff167f8be0079c531659141344cd1fd0a4f28419497f9722a3daafe3b4186f6b6457e060405160405180910390a35050565b60026001540361113b576040517f3ee5aeb500000000000000000000000000000000000000000000000000000000815260040160405180910390fd5b6002600181905550565b60018081905550565b600033905090565b604051806060016040528060608152602001600081526020016000151581525090565b6000604051905090565b600080fd5b600080fd5b600080fd5b600080fd5b6000601f19601f8301169050919050565b7f4e487b7100000000000000000000000000000000000000000000000000000000600052604160045260246000fd5b6111e082611197565b810181811067ffffffffffffffff821117156111ff576111fe6111a8565b5b80604052505050565b6000611212611179565b905061121e82826111d7565b919050565b600067ffffffffffffffff82111561123e5761123d6111a8565b5b61124782611197565b9050602081019050919050565b82818337600083830152505050565b600061127661127184611223565b611208565b90508281526020810184848401111561129257611291611192565b5b61129d848285611254565b509392505050565b600082601f8301126112ba576112b961118d565b5b81356112ca848260208601611263565b91505092915050565b6000819050919050565b6112e6816112d3565b81146112f157600080fd5b50565b600081359050611303816112dd565b92915050565b600080604083850312156113205761131f611183565b5b600083013567ffffffffffffffff81111561133e5761133d611188565b5b61134a858286016112a5565b925050602061135b858286016112f4565b9150509250929050565b61136e816112d3565b82525050565b60006020820190506113896000830184611365565b92915050565b6000806000606084860312156113a8576113a7611183565b5b600084013567ffffffffffffffff8111156113c6576113c5611188565b5b6113d2868287016112a5565b935050602084013567ffffffffffffffff8111156113f3576113f2611188565b5b6113ff868287016112a5565b9250506040611410868287016112f4565b9150509250925092565b600073ffffffffffffffffffffffffffffffffffffffff82169050919050565b60006114458261141a565b9050919050565b6114558161143a565b82525050565b6000602082019050611470600083018461144c565b92915050565b60006020828403121561148c5761148b611183565b5b600082013567ffffffffffffffff8111156114aa576114a9611188565b5b6114b6848285016112a5565b91505092915050565b600081519050919050565b600082825260208201905092915050565b60005b838110156114f95780820151818401526020810190506114de565b60008484015250505050565b6000611510826114bf565b61151a81856114ca565b935061152a8185602086016114db565b61153381611197565b840191505092915050565b611547816112d3565b82525050565b60008115159050919050565b6115628161154d565b82525050565b600060608301600083015184820360008601526115858282611505565b915050602083015161159a602086018261153e565b5060408301516115ad6040860182611559565b508091505092915050565b600060208201905081810360008301526115d28184611568565b905092915050565b6115e38161143a565b81146115ee57600080fd5b50565b600081359050611600816115da565b92915050565b60006020828403121561161c5761161b611183565b5b600061162a848285016115f1565b91505092915050565b600081519050919050565b600082825260208201905092915050565b6000819050602082019050919050565b6116688161143a565b82525050565b600060c083016000830151611686600086018261165f565b506020830151848203602086015261169e8282611505565b915050604083015184820360408601526116b88282611505565b91505060608301516116cd606086018261153e565b5060808301516116e0608086018261153e565b5060a08301516116f360a086018261153e565b508091505092915050565b600061170a838361166e565b905092915050565b6000602082019050919050565b600061172a82611633565b611734818561163e565b9350836020820285016117468561164f565b8060005b85811015611782578484038952815161176385826116fe565b945061176e83611712565b925060208a0199505060018101905061174a565b50829750879550505050505092915050565b600060208201905081810360008301526117ae818461171f565b905092915050565b600080604083850312156117cd576117cc611183565b5b60006117db858286016115f1565b92505060206117ec858286016112f4565b9150509250929050565b600082825260208201905092915050565b6000611812826114bf565b61181c81856117f6565b935061182c8185602086016114db565b61183581611197565b840191505092915050565b600060c082019050611855600083018961144c565b81810360208301526118678188611807565b9050818103604083015261187b8187611807565b905061188a6060830186611365565b6118976080830185611365565b6118a460a0830184611365565b979650505050505050565b6118b88161154d565b82525050565b600060608201905081810360008301526118d88186611807565b90506118e76020830185611365565b6118f460408301846118af565b949350505050565b600081905092915050565b6000611912826114bf565b61191c81856118fc565b935061192c8185602086016114db565b80840191505092915050565b60006119448284611907565b915081905092915050565b7f47616d652063757272656e637920646f6573206e6f7420657869737400000000600082015250565b6000611985601c836117f6565b91506119908261194f565b602082019050919050565b600060208201905081810360008301526119b481611978565b9050919050565b7f4e487b7100000000000000000000000000000000000000000000000000000000600052601160045260246000fd5b60006119f5826112d3565b9150611a00836112d3565b9250828202611a0e816112d3565b91508282048414831517611a2557611a246119bb565b5b5092915050565b60006040820190508181036000830152611a468185611807565b9050611a556020830184611365565b9392505050565b7f496e73756666696369656e74207061796d656e74000000000000000000000000600082015250565b6000611a926014836117f6565b9150611a9d82611a5c565b602082019050919050565b60006020820190508181036000830152611ac181611a85565b9050919050565b7f4e487b7100000000000000000000000000000000000000000000000000000000600052602260045260246000fd5b60006002820490506001821680611b0f57607f821691505b602082108103611b2257611b21611ac8565b5b50919050565b60008190508160005260206000209050919050565b60006020601f8301049050919050565b600082821b905092915050565b600060088302611b8a7fffffffffffffffffffffffffffffffffffffffffffffffffffffffffffffffff82611b4d565b611b948683611b4d565b95508019841693508086168417925050509392505050565b6000819050919050565b6000611bd1611bcc611bc7846112d3565b611bac565b6112d3565b9050919050565b6000819050919050565b611beb83611bb6565b611bff611bf782611bd8565b848454611b5a565b825550505050565b600090565b611c14611c07565b611c1f818484611be2565b505050565b5b81811015611c4357611c38600082611c0c565b600181019050611c25565b5050565b601f821115611c8857611c5981611b28565b611c6284611b3d565b81016020851015611c71578190505b611c85611c7d85611b3d565b830182611c24565b50505b505050565b600082821c905092915050565b6000611cab60001984600802611c8d565b1980831691505092915050565b6000611cc48383611c9a565b9150826002028217905092915050565b611cdd826114bf565b67ffffffffffffffff811115611cf657611cf56111a8565b5b611d008254611af7565b611d0b828285611c47565b600060209050601f831160018114611d3e5760008415611d2c578287015190505b611d368582611cb8565b865550611d9e565b601f198416611d4c86611b28565b60005b82811015611d7457848901518255600182019150602085019450602081019050611d4f565b86831015611d915784890151611d8d601f891682611c9a565b8355505b6001600288020188555050505b505050505050565b6000611db1826112d3565b9150611dbc836112d3565b9250828203905081811115611dd457611dd36119bb565b5b92915050565b600060a0820190508181036000830152611df48188611807565b90508181036020830152611e088187611807565b9050611e176040830186611365565b611e246060830185611365565b611e316080830184611365565b9695505050505050565b7f47616d652063757272656e637920616c72656164792065786973747300000000600082015250565b6000611e71601c836117f6565b9150611e7c82611e3b565b602082019050919050565b60006020820190508181036000830152611ea081611e64565b9050919050565b60006060820190508181036000830152611ec18186611807565b90508181036020830152611ed58185611807565b9050611ee46040830184611365565b94935050505056fea2646970667358221220db27e076ddc1793ac20ca64afeb37cb88b1a3f1d64cc6d294718432cb43be5cf64736f6c634300081b0033",
  "linkReferences": {},
  "deployedLinkReferences": {}
}