{
  "_format": "hh-sol-artifact-1",
  "contractName": "SCROWLAccountNFT",
  "sourceName": "contracts/SCROWLAccountNFT.sol",
  "abi": [
    {
      "inputs": [],
      "stateMutability": "nonpayable",
      "type": "constructor"
    },
    {
      "inputs": [
        {
          "internalType": "address",
          "name": "sender",
          "type": "address"
        },
        {
          "internalType": "uint256",
          "name": "tokenId",
          "type": "uint256"
        },
        {
          "internalType": "address",
          "name": "owner",
          "type": "address"
        }
      ],
      "name": "ERC721IncorrectOwner",
      "type": "error"
    },
    {
      "inputs": [
        {
          "internalType": "address",
          "name": "operator",
          "type": "address"
        },
        {
          "internalType": "uint256",
          "name": "tokenId",
          "type": "uint256"
        }
      ],
      "name": "ERC721InsufficientApproval",
      "type": "error"
    },
    {
      "inputs": [
        {
          "internalType": "address",
          "name": "approver",
          "type": "address"
        }
      ],
      "name": "ERC721InvalidApprover",
      "type": "error"
    },
    {
      "inputs": [
        {
          "internalType": "address",
          "name": "operator",
          "type": "address"
        }
      ],
      "name": "ERC721InvalidOperator",
      "type": "error"
    },
    {
      "inputs": [
        {
          "internalType": "address",
          "name": "owner",
          "type": "address"
        }
      ],
      "name": "ERC721InvalidOwner",
      "type": "error"
    },
    {
      "inputs": [
        {
          "internalType": "address",
          "name": "receiver",
          "type": "address"
        }
      ],
      "name": "ERC721InvalidReceiver",
      "type": "error"
    },
    {
      "inputs": [
        {
          "internalType": "address",
          "name": "sender",
          "type": "address"
        }
      ],
      "name": "ERC721InvalidSender",
      "type": "error"
    },
    {
      "inputs": [
        {
          "internalType": "uint256",
          "name": "tokenId",
          "type": "uint256"
        }
      ],
      "name": "ERC721NonexistentToken",
      "type": "error"
    },
    {
      "inputs": [
        {
          "internalType": "address",
          "name": "owner",
          "type": "address"
        }
      ],
      "name": "OwnableInvalidOwner",
      "type": "error"
    },
    {
      "inputs": [
        {
          "internalType": "address",
          "name": "account",
          "type": "address"
        }
      ],
      "name": "OwnableUnauthorizedAccount",
      "type": "error"
    },
    {
      "inputs": [],
      "name": "ReentrancyGuardReentrantCall",
      "type": "error"
    },
    {
      "anonymous": false,
      "inputs": [
        {
          "indexed": true,
          "internalType": "uint256",
          "name": "tokenId",
          "type": "uint256"
        },
        {
          "indexed": true,
          "internalType": "address",
          "name": "minter",
          "type": "address"
        },
        {
          "indexed": false,
          "internalType": "string",
          "name": "gameId",
          "type": "string"
        },
        {
          "indexed": false,
          "internalType": "uint256",
          "name": "listingPrice",
          "type": "uint256"
        }
      ],
      "name": "AccountNFTMinted",
      "type": "event"
    },
    {
      "anonymous": false,
      "inputs": [
        {
          "indexed": true,
          "internalType": "address",
          "name": "owner",
          "type": "address"
        },
        {
          "indexed": true,
          "internalType": "address",
          "name": "approved",
          "type": "address"
        },
        {
          "indexed": true,
          "internalType": "uint256",
          "name": "tokenId",
          "type": "uint256"
        }
      ],
      "name": "Approval",
      "type": "event"
    },
    {
      "anonymous": false,
      "inputs": [
        {
          "indexed": true,
          "internalType": "address",
          "name": "owner",
          "type": "address"
        },
        {
          "indexed": true,
          "internalType": "address",
          "name": "operator",
          "type": "address"
        },
        {
          "indexed": false,
          "internalType": "bool",
          "name": "approved",
          "type": "bool"
        }
      ],
      "name": "ApprovalForAll",
      "type": "event"
    },
    {
      "anonymous": false,
      "inputs": [
        {
          "indexed": false,
          "internalType": "uint256",
          "name": "_fromTokenId",
          "type": "uint256"
        },
        {
          "indexed": false,
          "internalType": "uint256",
          "name": "_toTokenId",
          "type": "uint256"
        }
      ],
      "name": "BatchMetadataUpdate",
      "type": "event"
    },
    {
      "anonymous": false,
      "inputs": [
        {
          "indexed": true,
          "internalType": "uint256",
          "name": "tokenId",
          "type": "uint256"
        },
        {
          "indexed": true,
          "internalType": "address",
          "name": "claimer",
          "type": "address"
        }
      ],
      "name": "CredentialsClaimed",
      "type": "event"
    },
    {
      "anonymous": false,
      "inputs": [
        {
          "indexed": true,
          "internalType": "uint256",
          "name": "tokenId",
          "type": "uint256"
        },
        {
          "indexed": false,
          "internalType": "uint256",
          "name": "newPrice",
          "type": "uint256"
        }
      ],
      "name": "ListingPriceUpdated",
      "type": "event"
    },
    {
      "anonymous": false,
      "inputs": [
        {
          "indexed": false,
          "internalType": "uint256",
          "name": "_tokenId",
          "type": "uint256"
        }
      ],
      "name": "MetadataUpdate",
      "type": "event"
    },
    {
      "anonymous": false,
      "inputs": [
        {
          "indexed": true,
          "internalType": "address",
          "name": "previousOwner",
          "type": "address"
        },
        {
          "indexed": true,
          "internalType": "address",
          "name": "newOwner",
          "type": "address"
        }
      ],
      "name": "OwnershipTransferred",
      "type": "event"
    },
    {
      "anonymous": false,
      "inputs": [
        {
          "indexed": true,
          "internalType": "address",
          "name": "from",
          "type": "address"
        },
        {
          "indexed": true,
          "internalType": "address",
          "name": "to",
          "type": "address"
        },
        {
          "indexed": true,
          "internalType": "uint256",
          "name": "tokenId",
          "type": "uint256"
        }
      ],
      "name": "Transfer",
      "type": "event"
    },
    {
      "inputs": [
        {
          "internalType": "address",
          "name": "to",
          "type": "address"
        },
        {
          "internalType": "uint256",
          "name": "tokenId",
          "type": "uint256"
        }
      ],
      "name": "approve",
      "outputs": [],
      "stateMutability": "nonpayable",
      "type": "function"
    },
    {
      "inputs": [
        {
          "internalType": "address",
          "name": "owner",
          "type": "address"
        }
      ],
      "name": "balanceOf",
      "outputs": [
        {
          "internalType": "uint256",
          "name": "",
          "type": "uint256"
        }
      ],
      "stateMutability": "view",
      "type": "function"
    },
    {
      "inputs": [
        {
          "internalType": "uint256",
          "name": "tokenId",
          "type": "uint256"
        }
      ],
      "name": "burn",
      "outputs": [],
      "stateMutability": "nonpayable",
      "type": "function"
    },
    {
      "inputs": [
        {
          "internalType": "uint256",
          "name": "tokenId",
          "type": "uint256"
        }
      ],
      "name": "claimCredentials",
      "outputs": [],
      "stateMutability": "nonpayable",
      "type": "function"
    },
    {
      "inputs": [
        {
          "internalType": "uint256",
          "name": "tokenId",
          "type": "uint256"
        }
      ],
      "name": "getApproved",
      "outputs": [
        {
          "internalType": "address",
          "name": "",
          "type": "address"
        }
      ],
      "stateMutability": "view",
      "type": "function"
    },
    {
      "inputs": [
        {
          "internalType": "uint256",
          "name": "tokenId",
          "type": "uint256"
        }
      ],
      "name": "getEncryptedData",
      "outputs": [
        {
          "internalType": "string",
          "name": "",
          "type": "string"
        }
      ],
      "stateMutability": "view",
      "type": "function"
    },
    {
      "inputs": [
        {
          "internalType": "uint256",
          "name": "tokenId",
          "type": "uint256"
        }
      ],
      "name": "getGameAccountDetails",
      "outputs": [
        {
          "internalType": "string",
          "name": "gameId",
          "type": "string"
        },
        {
          "internalType": "uint256",
          "name": "listingPrice",
          "type": "uint256"
        },
        {
          "internalType": "bool",
          "name": "isClaimed",
          "type": "bool"
        },
        {
          "internalType": "address",
          "name": "claimer",
          "type": "address"
        }
      ],
      "stateMutability": "view",
      "type": "function"
    },
    {
      "inputs": [
        {
          "internalType": "address",
          "name": "owner",
          "type": "address"
        },
        {
          "internalType": "address",
          "name": "operator",
          "type": "address"
        }
      ],
      "name": "isApprovedForAll",
      "outputs": [
        {
          "internalType": "bool",
          "name": "",
          "type": "bool"
        }
      ],
      "stateMutability": "view",
      "type": "function"
    },
    {
      "inputs": [],
      "name": "marketplace",
      "outputs": [
        {
          "internalType": "address",
          "name": "",
          "type": "address"
        }
      ],
      "stateMutability": "view",
      "type": "function"
    },
    {
      "inputs": [
        {
          "internalType": "string",
          "name": "encryptedData",
          "type": "string"
        },
        {
          "internalType": "string",
          "name": "gameId",
          "type": "string"
        },
        {
          "internalType": "uint256",
          "name": "listingPrice",
          "type": "uint256"
        },
        {
          "internalType": "string",
          "name": "tokenURI",
          "type": "string"
        }
      ],
      "name": "mintGameAccount",
      "outputs": [
        {
          "internalType": "uint256",
          "name": "",
          "type": "uint256"
        }
      ],
      "stateMutability": "nonpayable",
      "type": "function"
    },
    {
      "inputs": [],
      "name": "name",
      "outputs": [
        {
          "internalType": "string",
          "name": "",
          "type": "string"
        }
      ],
      "stateMutability": "view",
      "type": "function"
    },
    {
      "inputs": [],
      "name": "owner",
      "outputs": [
        {
          "internalType": "address",
          "name": "",
          "type": "address"
        }
      ],
      "stateMutability": "view",
      "type": "function"
    },
    {
      "inputs": [
        {
          "internalType": "uint256",
          "name": "tokenId",
          "type": "uint256"
        }
      ],
      "name": "ownerOf",
      "outputs": [
        {
          "internalType": "address",
          "name": "",
          "type": "address"
        }
      ],
      "stateMutability": "view",
      "type": "function"
    },
    {
      "inputs": [],
      "name": "renounceOwnership",
      "outputs": [],
      "stateMutability": "nonpayable",
      "type": "function"
    },
    {
      "inputs": [
        {
          "internalType": "address",
          "name": "from",
          "type": "address"
        },
        {
          "internalType": "address",
          "name": "to",
          "type": "address"
        },
        {
          "internalType": "uint256",
          "name": "tokenId",
          "type": "uint256"
        }
      ],
      "name": "safeTransferFrom",
      "outputs": [],
      "stateMutability": "nonpayable",
      "type": "function"
    },
    {
      "inputs": [
        {
          "internalType": "address",
          "name": "from",
          "type": "address"
        },
        {
          "internalType": "address",
          "name": "to",
          "type": "address"
        },
        {
          "internalType": "uint256",
          "name": "tokenId",
          "type": "uint256"
        },
        {
          "internalType": "bytes",
          "name": "data",
          "type": "bytes"
        }
      ],
      "name": "safeTransferFrom",
      "outputs": [],
      "stateMutability": "nonpayable",
      "type": "function"
    },
    {
      "inputs": [
        {
          "internalType": "address",
          "name": "operator",
          "type": "address"
        },
        {
          "internalType": "bool",
          "name": "approved",
          "type": "bool"
        }
      ],
      "name": "setApprovalForAll",
      "outputs": [],
      "stateMutability": "nonpayable",
      "type": "function"
    },
    {
      "inputs": [
        {
          "internalType": "address",
          "name": "_marketplace",
          "type": "address"
        }
      ],
      "name": "setMarketplace",
      "outputs": [],
      "stateMutability": "nonpayable",
      "type": "function"
    },
    {
      "inputs": [
        {
          "internalType": "bytes4",
          "name": "interfaceId",
          "type": "bytes4"
        }
      ],
      "name": "supportsInterface",
      "outputs": [
        {
          "internalType": "bool",
          "name": "",
          "type": "bool"
        }
      ],
      "stateMutability": "view",
      "type": "function"
    },
    {
      "inputs": [],
      "name": "symbol",
      "outputs": [
        {
          "internalType": "string",
          "name": "",
          "type": "string"
        }
      ],
      "stateMutability": "view",
      "type": "function"
    },
    {
      "inputs": [
        {
          "internalType": "uint256",
          "name": "tokenId",
          "type": "uint256"
        }
      ],
      "name": "tokenExists",
      "outputs": [
        {
          "internalType": "bool",
          "name": "",
          "type": "bool"
        }
      ],
      "stateMutability": "view",
      "type": "function"
    },
    {
      "inputs": [
        {
          "internalType": "uint256",
          "name": "tokenId",
          "type": "uint256"
        }
      ],
      "name": "tokenURI",
      "outputs": [
        {
          "internalType": "string",
          "name": "",
          "type": "string"
        }
      ],
      "stateMutability": "view",
      "type": "function"
    },
    {
      "inputs": [],
      "name": "totalSupply",
      "outputs": [
        {
          "internalType": "uint256",
          "name": "",
          "type": "uint256"
        }
      ],
      "stateMutability": "view",
      "type": "function"
    },
    {
      "inputs": [
        {
          "internalType": "address",
          "name": "from",
          "type": "address"
        },
        {
          "internalType": "address",
          "name": "to",
          "type": "address"
        },
        {
          "internalType": "uint256",
          "name": "tokenId",
          "type": "uint256"
        }
      ],
      "name": "transferFrom",
      "outputs": [],
      "stateMutability": "nonpayable",
      "type": "function"
    },
    {
      "inputs": [
        {
          "internalType": "address",
          "name": "newOwner",
          "type": "address"
        }
      ],
      "name": "transferOwnership",
      "outputs": [],
      "stateMutability": "nonpayable",
      "type": "function"
    },
    {
      "inputs": [
        {
          "internalType": "uint256",
          "name": "tokenId",
          "type": "uint256"
        },
        {
          "internalType": "uint256",
          "name": "newPrice",
          "type": "uint256"
        }
      ],
      "name": "updateListingPrice",
      "outputs": [],
      "stateMutability": "nonpayable",
      "type": "function"
    }
  ],
  "bytecode": "0x608060405234801561001057600080fd5b50336040518060400160405280601481526020017f5343524f574c2047616d65204163636f756e74730000000000000000000000008152506040518060400160405280600681526020017f5343524f574c0000000000000000000000000000000000000000000000000000815250816000908161008d9190610487565b50806001908161009d9190610487565b505050600073ffffffffffffffffffffffffffffffffffffffff168173ffffffffffffffffffffffffffffffffffffffff16036101125760006040517f1e4fbdf7000000000000000000000000000000000000000000000000000000008152600401610109919061059a565b60405180910390fd5b6101218161017160201b60201c565b5060016008819055506000600a60006101000a81548173ffffffffffffffffffffffffffffffffffffffff021916908373ffffffffffffffffffffffffffffffffffffffff1602179055506105b5565b6000600760009054906101000a900473ffffffffffffffffffffffffffffffffffffffff16905081600760006101000a81548173ffffffffffffffffffffffffffffffffffffffff021916908373ffffffffffffffffffffffffffffffffffffffff1602179055508173ffffffffffffffffffffffffffffffffffffffff168173ffffffffffffffffffffffffffffffffffffffff167f8be0079c531659141344cd1fd0a4f28419497f9722a3daafe3b4186f6b6457e060405160405180910390a35050565b600081519050919050565b7f4e487b7100000000000000000000000000000000000000000000000000000000600052604160045260246000fd5b7f4e487b7100000000000000000000000000000000000000000000000000000000600052602260045260246000fd5b600060028204905060018216806102b857607f821691505b6020821081036102cb576102ca610271565b5b50919050565b60008190508160005260206000209050919050565b60006020601f8301049050919050565b600082821b905092915050565b6000600883026103337fffffffffffffffffffffffffffffffffffffffffffffffffffffffffffffffff826102f6565b61033d86836102f6565b95508019841693508086168417925050509392505050565b6000819050919050565b6000819050919050565b600061038461037f61037a84610355565b61035f565b610355565b9050919050565b6000819050919050565b61039e83610369565b6103b26103aa8261038b565b848454610303565b825550505050565b600090565b6103c76103ba565b6103d2818484610395565b505050565b5b818110156103f6576103eb6000826103bf565b6001810190506103d8565b5050565b601f82111561043b5761040c816102d1565b610415846102e6565b81016020851015610424578190505b610438610430856102e6565b8301826103d7565b50505b505050565b600082821c905092915050565b600061045e60001984600802610440565b1980831691505092915050565b6000610477838361044d565b9150826002028217905092915050565b61049082610237565b67ffffffffffffffff8111156104a9576104a8610242565b5b6104b382546102a0565b6104be8282856103fa565b600060209050601f8311600181146104f157600084156104df578287015190505b6104e9858261046b565b865550610551565b601f1984166104ff866102d1565b60005b8281101561052757848901518255600182019150602085019450602081019050610502565b868310156105445784890151610540601f89168261044d565b8355505b6001600288020188555050505b505050505050565b600073ffffffffffffffffffffffffffffffffffffffff82169050919050565b600061058482610559565b9050919050565b61059481610579565b82525050565b60006020820190506105af600083018461058b565b92915050565b6138ea806105c46000396000f3fe608060405234801561001057600080fd5b506004361061018d5760003560e01c806370a08231116100de578063abc8c7af11610097578063c87b56dd11610071578063c87b56dd14610481578063e985e9c5146104b1578063ee9ba6ed146104e1578063f2fde38b146105115761018d565b8063abc8c7af1461042b578063b88d4fde14610449578063c4604943146104655761018d565b806370a082311461037d578063715018a6146103ad57806373ad6c2d146103b75780638da5cb5b146103d357806395d89b41146103f1578063a22cb4651461040f5761018d565b806323b872dd1161014b57806342966c681161012557806342966c68146102e25780636352211e146102fe57806366abd5f11461032e5780636dd4a674146103615761018d565b806323b872dd1461027a5780633ec0b0bc1461029657806342842e0e146102c65761018d565b8062923f9e1461019257806301ffc9a7146101c257806306fdde03146101f2578063081812fc14610210578063095ea7b31461024057806318160ddd1461025c575b600080fd5b6101ac60048036038101906101a7919061297d565b61052d565b6040516101b991906129c5565b60405180910390f35b6101dc60048036038101906101d79190612a38565b610557565b6040516101e991906129c5565b60405180910390f35b6101fa6105b8565b6040516102079190612af5565b60405180910390f35b61022a6004803603810190610225919061297d565b61064a565b6040516102379190612b58565b60405180910390f35b61025a60048036038101906102559190612b9f565b610666565b005b61026461067c565b6040516102719190612bee565b60405180910390f35b610294600480360381019061028f9190612c09565b610686565b005b6102b060048036038101906102ab919061297d565b610788565b6040516102bd9190612af5565b60405180910390f35b6102e060048036038101906102db9190612c09565b61095a565b005b6102fc60048036038101906102f7919061297d565b61097a565b005b6103186004803603810190610313919061297d565b610ae9565b6040516103259190612b58565b60405180910390f35b6103486004803603810190610343919061297d565b610afb565b6040516103589493929190612c5c565b60405180910390f35b61037b6004803603810190610376919061297d565b610d2f565b005b61039760048036038101906103929190612ca8565b611000565b6040516103a49190612bee565b60405180910390f35b6103b56110ba565b005b6103d160048036038101906103cc9190612ca8565b6110ce565b005b6103db61111a565b6040516103e89190612b58565b60405180910390f35b6103f9611144565b6040516104069190612af5565b60405180910390f35b61042960048036038101906104249190612d01565b6111d6565b005b6104336111ec565b6040516104409190612b58565b60405180910390f35b610463600480360381019061045e9190612e76565b611212565b005b61047f600480360381019061047a9190612ef9565b611237565b005b61049b6004803603810190610496919061297d565b6113b0565b6040516104a89190612af5565b60405180910390f35b6104cb60048036038101906104c69190612f39565b6114c3565b6040516104d891906129c5565b60405180910390f35b6104fb60048036038101906104f6919061301a565b611557565b6040516105089190612bee565b60405180910390f35b61052b60048036038101906105269190612ca8565b611709565b005b6000600c600083815260200190815260200160002060009054906101000a900460ff169050919050565b6000634906490660e01b7bffffffffffffffffffffffffffffffffffffffffffffffffffffffff1916827bffffffffffffffffffffffffffffffffffffffffffffffffffffffff191614806105b157506105b08261178f565b5b9050919050565b6060600080546105c790613104565b80601f01602080910402602001604051908101604052809291908181526020018280546105f390613104565b80156106405780601f1061061557610100808354040283529160200191610640565b820191906000526020600020905b81548152906001019060200180831161062357829003601f168201915b5050505050905090565b600061065582611871565b5061065f826118f9565b9050919050565b6106788282610673611936565b61193e565b5050565b6000600954905090565b600073ffffffffffffffffffffffffffffffffffffffff168273ffffffffffffffffffffffffffffffffffffffff16036106f85760006040517f64a0ae920000000000000000000000000000000000000000000000000000000081526004016106ef9190612b58565b60405180910390fd5b600061070c8383610707611936565b611950565b90508373ffffffffffffffffffffffffffffffffffffffff168173ffffffffffffffffffffffffffffffffffffffff1614610782578382826040517f64283d7b00000000000000000000000000000000000000000000000000000000815260040161077993929190613135565b60405180910390fd5b50505050565b60606107938261052d565b6107d2576040517f08c379a00000000000000000000000000000000000000000000000000000000081526004016107c9906131b8565b60405180910390fd5b6107db82610ae9565b73ffffffffffffffffffffffffffffffffffffffff163373ffffffffffffffffffffffffffffffffffffffff1614806108755750600b600083815260200190815260200160002060030160019054906101000a900473ffffffffffffffffffffffffffffffffffffffff1673ffffffffffffffffffffffffffffffffffffffff163373ffffffffffffffffffffffffffffffffffffffff16145b6108b4576040517f08c379a00000000000000000000000000000000000000000000000000000000081526004016108ab90613224565b60405180910390fd5b600b600083815260200190815260200160002060000180546108d590613104565b80601f016020809104026020016040519081016040528092919081815260200182805461090190613104565b801561094e5780601f106109235761010080835404028352916020019161094e565b820191906000526020600020905b81548152906001019060200180831161093157829003601f168201915b50505050509050919050565b61097583838360405180602001604052806000815250611212565b505050565b6109838161052d565b6109c2576040517f08c379a00000000000000000000000000000000000000000000000000000000081526004016109b9906131b8565b60405180910390fd5b3373ffffffffffffffffffffffffffffffffffffffff166109e282610ae9565b73ffffffffffffffffffffffffffffffffffffffff1614610a38576040517f08c379a0000000000000000000000000000000000000000000000000000000008152600401610a2f90613290565b60405180910390fd5b610a4181611b6a565b600b600082815260200190815260200160002060008082016000610a6591906128d6565b600182016000610a7591906128d6565b60028201600090556003820160006101000a81549060ff02191690556003820160016101000a81549073ffffffffffffffffffffffffffffffffffffffff021916905550506000600c600083815260200190815260200160002060006101000a81548160ff02191690831515021790555050565b6000610af482611871565b9050919050565b60606000806000610b0b8561052d565b610b4a576040517f08c379a0000000000000000000000000000000000000000000000000000000008152600401610b41906131b8565b60405180910390fd5b6000600b60008781526020019081526020016000206040518060a0016040529081600082018054610b7a90613104565b80601f0160208091040260200160405190810160405280929190818152602001828054610ba690613104565b8015610bf35780601f10610bc857610100808354040283529160200191610bf3565b820191906000526020600020905b815481529060010190602001808311610bd657829003601f168201915b50505050508152602001600182018054610c0c90613104565b80601f0160208091040260200160405190810160405280929190818152602001828054610c3890613104565b8015610c855780601f10610c5a57610100808354040283529160200191610c85565b820191906000526020600020905b815481529060010190602001808311610c6857829003601f168201915b50505050508152602001600282015481526020016003820160009054906101000a900460ff161515151581526020016003820160019054906101000a900473ffffffffffffffffffffffffffffffffffffffff1673ffffffffffffffffffffffffffffffffffffffff1673ffffffffffffffffffffffffffffffffffffffff1681525050905080602001518160400151826060015183608001519450945094509450509193509193565b610d37611bf0565b610d408161052d565b610d7f576040517f08c379a0000000000000000000000000000000000000000000000000000000008152600401610d76906131b8565b60405180910390fd5b3373ffffffffffffffffffffffffffffffffffffffff16610d9f82610ae9565b73ffffffffffffffffffffffffffffffffffffffff161480610e225750600b600082815260200190815260200160002060030160019054906101000a900473ffffffffffffffffffffffffffffffffffffffff1673ffffffffffffffffffffffffffffffffffffffff163373ffffffffffffffffffffffffffffffffffffffff16145b80610e7a5750600a60009054906101000a900473ffffffffffffffffffffffffffffffffffffffff1673ffffffffffffffffffffffffffffffffffffffff163373ffffffffffffffffffffffffffffffffffffffff16145b610eb9576040517f08c379a0000000000000000000000000000000000000000000000000000000008152600401610eb0906132fc565b60405180910390fd5b600b600082815260200190815260200160002060030160009054906101000a900460ff1615610f1d576040517f08c379a0000000000000000000000000000000000000000000000000000000008152600401610f1490613368565b60405180910390fd5b6001600b600083815260200190815260200160002060030160006101000a81548160ff021916908315150217905550610f5581610ae9565b600b600083815260200190815260200160002060030160016101000a81548173ffffffffffffffffffffffffffffffffffffffff021916908373ffffffffffffffffffffffffffffffffffffffff160217905550610fb281610ae9565b73ffffffffffffffffffffffffffffffffffffffff16817ff3b3fc6ee0ee8028b0da40cdb130dffaaed85b6b3fb434f33687f1f61d00f25e60405160405180910390a3610ffd611c36565b50565b60008073ffffffffffffffffffffffffffffffffffffffff168273ffffffffffffffffffffffffffffffffffffffff16036110735760006040517f89c62b6400000000000000000000000000000000000000000000000000000000815260040161106a9190612b58565b60405180910390fd5b600360008373ffffffffffffffffffffffffffffffffffffffff1673ffffffffffffffffffffffffffffffffffffffff168152602001908152602001600020549050919050565b6110c2611c40565b6110cc6000611cc7565b565b6110d6611c40565b80600a60006101000a81548173ffffffffffffffffffffffffffffffffffffffff021916908373ffffffffffffffffffffffffffffffffffffffff16021790555050565b6000600760009054906101000a900473ffffffffffffffffffffffffffffffffffffffff16905090565b60606001805461115390613104565b80601f016020809104026020016040519081016040528092919081815260200182805461117f90613104565b80156111cc5780601f106111a1576101008083540402835291602001916111cc565b820191906000526020600020905b8154815290600101906020018083116111af57829003601f168201915b5050505050905090565b6111e86111e1611936565b8383611d8d565b5050565b600a60009054906101000a900473ffffffffffffffffffffffffffffffffffffffff1681565b61121d848484610686565b611231611228611936565b85858585611efc565b50505050565b6112408261052d565b61127f576040517f08c379a0000000000000000000000000000000000000000000000000000000008152600401611276906131b8565b60405180910390fd5b3373ffffffffffffffffffffffffffffffffffffffff1661129f83610ae9565b73ffffffffffffffffffffffffffffffffffffffff16146112f5576040517f08c379a00000000000000000000000000000000000000000000000000000000081526004016112ec90613290565b60405180910390fd5b600b600083815260200190815260200160002060030160009054906101000a900460ff1615611359576040517f08c379a0000000000000000000000000000000000000000000000000000000008152600401611350906133d4565b60405180910390fd5b80600b600084815260200190815260200160002060020181905550817f522acc74fb3f21f3b09a9a4667b5faba86eb39c7f6b916a64f9114e68765abb4826040516113a49190612bee565b60405180910390a25050565b60606113bb82611871565b5060006006600084815260200190815260200160002080546113dc90613104565b80601f016020809104026020016040519081016040528092919081815260200182805461140890613104565b80156114555780601f1061142a57610100808354040283529160200191611455565b820191906000526020600020905b81548152906001019060200180831161143857829003601f168201915b5050505050905060006114666120ad565b9050600081510361147b5781925050506114be565b6000825111156114b0578082604051602001611498929190613430565b604051602081830303815290604052925050506114be565b6114b9846120c4565b925050505b919050565b6000600560008473ffffffffffffffffffffffffffffffffffffffff1673ffffffffffffffffffffffffffffffffffffffff16815260200190815260200160002060008373ffffffffffffffffffffffffffffffffffffffff1673ffffffffffffffffffffffffffffffffffffffff16815260200190815260200160002060009054906101000a900460ff16905092915050565b60006009600081548092919061156c90613483565b919050555060006009549050611582338261212d565b61158c818461214b565b6001600c600083815260200190815260200160002060006101000a81548160ff0219169083151502179055506040518060a00160405280878152602001868152602001858152602001600015158152602001600073ffffffffffffffffffffffffffffffffffffffff16815250600b600083815260200190815260200160002060008201518160000190816116219190613677565b5060208201518160010190816116379190613677565b506040820151816002015560608201518160030160006101000a81548160ff02191690831515021790555060808201518160030160016101000a81548173ffffffffffffffffffffffffffffffffffffffff021916908373ffffffffffffffffffffffffffffffffffffffff1602179055509050503373ffffffffffffffffffffffffffffffffffffffff16817f6473a30334d1bc0b3056d26f17fcf4c622e193488c18028d1a320d54b9defc0887876040516116f5929190613749565b60405180910390a380915050949350505050565b611711611c40565b600073ffffffffffffffffffffffffffffffffffffffff168173ffffffffffffffffffffffffffffffffffffffff16036117835760006040517f1e4fbdf700000000000000000000000000000000000000000000000000000000815260040161177a9190612b58565b60405180910390fd5b61178c81611cc7565b50565b60007f80ac58cd000000000000000000000000000000000000000000000000000000007bffffffffffffffffffffffffffffffffffffffffffffffffffffffff1916827bffffffffffffffffffffffffffffffffffffffffffffffffffffffff1916148061185a57507f5b5e139f000000000000000000000000000000000000000000000000000000007bffffffffffffffffffffffffffffffffffffffffffffffffffffffff1916827bffffffffffffffffffffffffffffffffffffffffffffffffffffffff1916145b8061186a5750611869826121a7565b5b9050919050565b60008061187d83612211565b9050600073ffffffffffffffffffffffffffffffffffffffff168173ffffffffffffffffffffffffffffffffffffffff16036118f057826040517f7e2732890000000000000000000000000000000000000000000000000000000081526004016118e79190612bee565b60405180910390fd5b80915050919050565b60006004600083815260200190815260200160002060009054906101000a900473ffffffffffffffffffffffffffffffffffffffff169050919050565b600033905090565b61194b838383600161224e565b505050565b60008061195c84612211565b9050600073ffffffffffffffffffffffffffffffffffffffff168373ffffffffffffffffffffffffffffffffffffffff161461199e5761199d818486612413565b5b600073ffffffffffffffffffffffffffffffffffffffff168173ffffffffffffffffffffffffffffffffffffffff1614611a2f576119e060008560008061224e565b6001600360008373ffffffffffffffffffffffffffffffffffffffff1673ffffffffffffffffffffffffffffffffffffffff168152602001908152602001600020600082825403925050819055505b600073ffffffffffffffffffffffffffffffffffffffff168573ffffffffffffffffffffffffffffffffffffffff1614611ab2576001600360008773ffffffffffffffffffffffffffffffffffffffff1673ffffffffffffffffffffffffffffffffffffffff168152602001908152602001600020600082825401925050819055505b846002600086815260200190815260200160002060006101000a81548173ffffffffffffffffffffffffffffffffffffffff021916908373ffffffffffffffffffffffffffffffffffffffff160217905550838573ffffffffffffffffffffffffffffffffffffffff168273ffffffffffffffffffffffffffffffffffffffff167fddf252ad1be2c89b69c2b068fc378daa952ba7f163c4a11628f55a4df523b3ef60405160405180910390a4809150509392505050565b6000611b796000836000611950565b9050600073ffffffffffffffffffffffffffffffffffffffff168173ffffffffffffffffffffffffffffffffffffffff1603611bec57816040517f7e273289000000000000000000000000000000000000000000000000000000008152600401611be39190612bee565b60405180910390fd5b5050565b600260085403611c2c576040517f3ee5aeb500000000000000000000000000000000000000000000000000000000815260040160405180910390fd5b6002600881905550565b6001600881905550565b611c48611936565b73ffffffffffffffffffffffffffffffffffffffff16611c6661111a565b73ffffffffffffffffffffffffffffffffffffffff1614611cc557611c89611936565b6040517f118cdaa7000000000000000000000000000000000000000000000000000000008152600401611cbc9190612b58565b60405180910390fd5b565b6000600760009054906101000a900473ffffffffffffffffffffffffffffffffffffffff16905081600760006101000a81548173ffffffffffffffffffffffffffffffffffffffff021916908373ffffffffffffffffffffffffffffffffffffffff1602179055508173ffffffffffffffffffffffffffffffffffffffff168173ffffffffffffffffffffffffffffffffffffffff167f8be0079c531659141344cd1fd0a4f28419497f9722a3daafe3b4186f6b6457e060405160405180910390a35050565b600073ffffffffffffffffffffffffffffffffffffffff168273ffffffffffffffffffffffffffffffffffffffff1603611dfe57816040517f5b08ba18000000000000000000000000000000000000000000000000000000008152600401611df59190612b58565b60405180910390fd5b80600560008573ffffffffffffffffffffffffffffffffffffffff1673ffffffffffffffffffffffffffffffffffffffff16815260200190815260200160002060008473ffffffffffffffffffffffffffffffffffffffff1673ffffffffffffffffffffffffffffffffffffffff16815260200190815260200160002060006101000a81548160ff0219169083151502179055508173ffffffffffffffffffffffffffffffffffffffff168373ffffffffffffffffffffffffffffffffffffffff167f17307eab39ab6107e8899845ad3d59bd9653f200f220920489ca2b5937696c3183604051611eef91906129c5565b60405180910390a3505050565b60008373ffffffffffffffffffffffffffffffffffffffff163b11156120a6578273ffffffffffffffffffffffffffffffffffffffff1663150b7a02868685856040518563ffffffff1660e01b8152600401611f5b94939291906137ce565b6020604051808303816000875af1925050508015611f9757506040513d601f19601f82011682018060405250810190611f94919061382f565b60015b61201b573d8060008114611fc7576040519150601f19603f3d011682016040523d82523d6000602084013e611fcc565b606091505b50600081510361201357836040517f64a0ae9200000000000000000000000000000000000000000000000000000000815260040161200a9190612b58565b60405180910390fd5b805181602001fd5b63150b7a0260e01b7bffffffffffffffffffffffffffffffffffffffffffffffffffffffff1916817bffffffffffffffffffffffffffffffffffffffffffffffffffffffff1916146120a457836040517f64a0ae9200000000000000000000000000000000000000000000000000000000815260040161209b9190612b58565b60405180910390fd5b505b5050505050565b606060405180602001604052806000815250905090565b60606120cf82611871565b5060006120da6120ad565b905060008151116120fa5760405180602001604052806000815250612125565b80612104846124d7565b604051602001612115929190613430565b6040516020818303038152906040525b915050919050565b6121478282604051806020016040528060008152506125a5565b5050565b8060066000848152602001908152602001600020908161216b9190613677565b507ff8e1a15aba9398e019f0b49df1a4fde98ee17ae345cb5f6b5e2c27f5033e8ce78260405161219b9190612bee565b60405180910390a15050565b60007f01ffc9a7000000000000000000000000000000000000000000000000000000007bffffffffffffffffffffffffffffffffffffffffffffffffffffffff1916827bffffffffffffffffffffffffffffffffffffffffffffffffffffffff1916149050919050565b60006002600083815260200190815260200160002060009054906101000a900473ffffffffffffffffffffffffffffffffffffffff169050919050565b80806122875750600073ffffffffffffffffffffffffffffffffffffffff168273ffffffffffffffffffffffffffffffffffffffff1614155b156123bb57600061229784611871565b9050600073ffffffffffffffffffffffffffffffffffffffff168373ffffffffffffffffffffffffffffffffffffffff161415801561230257508273ffffffffffffffffffffffffffffffffffffffff168173ffffffffffffffffffffffffffffffffffffffff1614155b8015612315575061231381846114c3565b155b1561235757826040517fa9fbf51f00000000000000000000000000000000000000000000000000000000815260040161234e9190612b58565b60405180910390fd5b81156123b957838573ffffffffffffffffffffffffffffffffffffffff168273ffffffffffffffffffffffffffffffffffffffff167f8c5be1e5ebec7d5bd14f71427d1e84f3dd0314c0f7b2291e5b200ac8c7c3b92560405160405180910390a45b505b836004600085815260200190815260200160002060006101000a81548173ffffffffffffffffffffffffffffffffffffffff021916908373ffffffffffffffffffffffffffffffffffffffff16021790555050505050565b61241e8383836125c9565b6124d257600073ffffffffffffffffffffffffffffffffffffffff168373ffffffffffffffffffffffffffffffffffffffff160361249357806040517f7e27328900000000000000000000000000000000000000000000000000000000815260040161248a9190612bee565b60405180910390fd5b81816040517f177e802f0000000000000000000000000000000000000000000000000000000081526004016124c992919061385c565b60405180910390fd5b505050565b6060600060016124e68461268a565b01905060008167ffffffffffffffff81111561250557612504612d4b565b5b6040519080825280601f01601f1916602001820160405280156125375781602001600182028036833780820191505090505b509050600082602001820190505b60011561259a578080600190039150507f3031323334353637383961626364656600000000000000000000000000000000600a86061a8153600a858161258e5761258d613885565b5b04945060008503612545575b819350505050919050565b6125af83836127dd565b6125c46125ba611936565b6000858585611efc565b505050565b60008073ffffffffffffffffffffffffffffffffffffffff168373ffffffffffffffffffffffffffffffffffffffff161415801561268157508273ffffffffffffffffffffffffffffffffffffffff168473ffffffffffffffffffffffffffffffffffffffff161480612642575061264184846114c3565b5b8061268057508273ffffffffffffffffffffffffffffffffffffffff16612668836118f9565b73ffffffffffffffffffffffffffffffffffffffff16145b5b90509392505050565b600080600090507a184f03e93ff9f4daa797ed6e38ed64bf6a1f01000000000000000083106126e8577a184f03e93ff9f4daa797ed6e38ed64bf6a1f01000000000000000083816126de576126dd613885565b5b0492506040810190505b6d04ee2d6d415b85acef81000000008310612725576d04ee2d6d415b85acef8100000000838161271b5761271a613885565b5b0492506020810190505b662386f26fc10000831061275457662386f26fc10000838161274a57612749613885565b5b0492506010810190505b6305f5e100831061277d576305f5e100838161277357612772613885565b5b0492506008810190505b61271083106127a257612710838161279857612797613885565b5b0492506004810190505b606483106127c557606483816127bb576127ba613885565b5b0492506002810190505b600a83106127d4576001810190505b80915050919050565b600073ffffffffffffffffffffffffffffffffffffffff168273ffffffffffffffffffffffffffffffffffffffff160361284f5760006040517f64a0ae920000000000000000000000000000000000000000000000000000000081526004016128469190612b58565b60405180910390fd5b600061285d83836000611950565b9050600073ffffffffffffffffffffffffffffffffffffffff168173ffffffffffffffffffffffffffffffffffffffff16146128d15760006040517f73c6ac6e0000000000000000000000000000000000000000000000000000000081526004016128c89190612b58565b60405180910390fd5b505050565b5080546128e290613104565b6000825580601f106128f45750612913565b601f0160209004906000526020600020908101906129129190612916565b5b50565b5b8082111561292f576000816000905550600101612917565b5090565b6000604051905090565b600080fd5b600080fd5b6000819050919050565b61295a81612947565b811461296557600080fd5b50565b60008135905061297781612951565b92915050565b6000602082840312156129935761299261293d565b5b60006129a184828501612968565b91505092915050565b60008115159050919050565b6129bf816129aa565b82525050565b60006020820190506129da60008301846129b6565b92915050565b60007fffffffff0000000000000000000000000000000000000000000000000000000082169050919050565b612a15816129e0565b8114612a2057600080fd5b50565b600081359050612a3281612a0c565b92915050565b600060208284031215612a4e57612a4d61293d565b5b6000612a5c84828501612a23565b91505092915050565b600081519050919050565b600082825260208201905092915050565b60005b83811015612a9f578082015181840152602081019050612a84565b60008484015250505050565b6000601f19601f8301169050919050565b6000612ac782612a65565b612ad18185612a70565b9350612ae1818560208601612a81565b612aea81612aab565b840191505092915050565b60006020820190508181036000830152612b0f8184612abc565b905092915050565b600073ffffffffffffffffffffffffffffffffffffffff82169050919050565b6000612b4282612b17565b9050919050565b612b5281612b37565b82525050565b6000602082019050612b6d6000830184612b49565b92915050565b612b7c81612b37565b8114612b8757600080fd5b50565b600081359050612b9981612b73565b92915050565b60008060408385031215612bb657612bb561293d565b5b6000612bc485828601612b8a565b9250506020612bd585828601612968565b9150509250929050565b612be881612947565b82525050565b6000602082019050612c036000830184612bdf565b92915050565b600080600060608486031215612c2257612c2161293d565b5b6000612c3086828701612b8a565b9350506020612c4186828701612b8a565b9250506040612c5286828701612968565b9150509250925092565b60006080820190508181036000830152612c768187612abc565b9050612c856020830186612bdf565b612c9260408301856129b6565b612c9f6060830184612b49565b95945050505050565b600060208284031215612cbe57612cbd61293d565b5b6000612ccc84828501612b8a565b91505092915050565b612cde816129aa565b8114612ce957600080fd5b50565b600081359050612cfb81612cd5565b92915050565b60008060408385031215612d1857612d1761293d565b5b6000612d2685828601612b8a565b9250506020612d3785828601612cec565b9150509250929050565b600080fd5b600080fd5b7f4e487b7100000000000000000000000000000000000000000000000000000000600052604160045260246000fd5b612d8382612aab565b810181811067ffffffffffffffff82111715612da257612da1612d4b565b5b80604052505050565b6000612db5612933565b9050612dc18282612d7a565b919050565b600067ffffffffffffffff821115612de157612de0612d4b565b5b612dea82612aab565b9050602081019050919050565b82818337600083830152505050565b6000612e19612e1484612dc6565b612dab565b905082815260208101848484011115612e3557612e34612d46565b5b612e40848285612df7565b509392505050565b600082601f830112612e5d57612e5c612d41565b5b8135612e6d848260208601612e06565b91505092915050565b60008060008060808587031215612e9057612e8f61293d565b5b6000612e9e87828801612b8a565b9450506020612eaf87828801612b8a565b9350506040612ec087828801612968565b925050606085013567ffffffffffffffff811115612ee157612ee0612942565b5b612eed87828801612e48565b91505092959194509250565b60008060408385031215612f1057612f0f61293d565b5b6000612f1e85828601612968565b9250506020612f2f85828601612968565b9150509250929050565b60008060408385031215612f5057612f4f61293d565b5b6000612f5e85828601612b8a565b9250506020612f6f85828601612b8a565b9150509250929050565b600067ffffffffffffffff821115612f9457612f93612d4b565b5b612f9d82612aab565b9050602081019050919050565b6000612fbd612fb884612f79565b612dab565b905082815260208101848484011115612fd957612fd8612d46565b5b612fe4848285612df7565b509392505050565b600082601f83011261300157613000612d41565b5b8135613011848260208601612faa565b91505092915050565b600080600080608085870312156130345761303361293d565b5b600085013567ffffffffffffffff81111561305257613051612942565b5b61305e87828801612fec565b945050602085013567ffffffffffffffff81111561307f5761307e612942565b5b61308b87828801612fec565b935050604061309c87828801612968565b925050606085013567ffffffffffffffff8111156130bd576130bc612942565b5b6130c987828801612fec565b91505092959194509250565b7f4e487b7100000000000000000000000000000000000000000000000000000000600052602260045260246000fd5b6000600282049050600182168061311c57607f821691505b60208210810361312f5761312e6130d5565b5b50919050565b600060608201905061314a6000830186612b49565b6131576020830185612bdf565b6131646040830184612b49565b949350505050565b7f546f6b656e20646f6573206e6f74206578697374000000000000000000000000600082015250565b60006131a2601483612a70565b91506131ad8261316c565b602082019050919050565b600060208201905081810360008301526131d181613195565b9050919050565b7f4e6f7420617574686f72697a6564000000000000000000000000000000000000600082015250565b600061320e600e83612a70565b9150613219826131d8565b602082019050919050565b6000602082019050818103600083015261323d81613201565b9050919050565b7f4e6f7420746f6b656e206f776e65720000000000000000000000000000000000600082015250565b600061327a600f83612a70565b915061328582613244565b602082019050919050565b600060208201905081810360008301526132a98161326d565b9050919050565b7f4e6f7420617574686f72697a656420746f20636c61696d000000000000000000600082015250565b60006132e6601783612a70565b91506132f1826132b0565b602082019050919050565b60006020820190508181036000830152613315816132d9565b9050919050565b7f416c726561647920636c61696d65640000000000000000000000000000000000600082015250565b6000613352600f83612a70565b915061335d8261331c565b602082019050919050565b6000602082019050818103600083015261338181613345565b9050919050565b7f4163636f756e7420636c61696d65640000000000000000000000000000000000600082015250565b60006133be600f83612a70565b91506133c982613388565b602082019050919050565b600060208201905081810360008301526133ed816133b1565b9050919050565b600081905092915050565b600061340a82612a65565b61341481856133f4565b9350613424818560208601612a81565b80840191505092915050565b600061343c82856133ff565b915061344882846133ff565b91508190509392505050565b7f4e487b7100000000000000000000000000000000000000000000000000000000600052601160045260246000fd5b600061348e82612947565b91507fffffffffffffffffffffffffffffffffffffffffffffffffffffffffffffffff82036134c0576134bf613454565b5b600182019050919050565b60008190508160005260206000209050919050565b60006020601f8301049050919050565b600082821b905092915050565b60006008830261352d7fffffffffffffffffffffffffffffffffffffffffffffffffffffffffffffffff826134f0565b61353786836134f0565b95508019841693508086168417925050509392505050565b6000819050919050565b600061357461356f61356a84612947565b61354f565b612947565b9050919050565b6000819050919050565b61358e83613559565b6135a261359a8261357b565b8484546134fd565b825550505050565b600090565b6135b76135aa565b6135c2818484613585565b505050565b5b818110156135e6576135db6000826135af565b6001810190506135c8565b5050565b601f82111561362b576135fc816134cb565b613605846134e0565b81016020851015613614578190505b613628613620856134e0565b8301826135c7565b50505b505050565b600082821c905092915050565b600061364e60001984600802613630565b1980831691505092915050565b6000613667838361363d565b9150826002028217905092915050565b61368082612a65565b67ffffffffffffffff81111561369957613698612d4b565b5b6136a38254613104565b6136ae8282856135ea565b600060209050601f8311600181146136e157600084156136cf578287015190505b6136d9858261365b565b865550613741565b601f1984166136ef866134cb565b60005b82811015613717578489015182556001820191506020850194506020810190506136f2565b868310156137345784890151613730601f89168261363d565b8355505b6001600288020188555050505b505050505050565b600060408201905081810360008301526137638185612abc565b90506137726020830184612bdf565b9392505050565b600081519050919050565b600082825260208201905092915050565b60006137a082613779565b6137aa8185613784565b93506137ba818560208601612a81565b6137c381612aab565b840191505092915050565b60006080820190506137e36000830187612b49565b6137f06020830186612b49565b6137fd6040830185612bdf565b818103606083015261380f8184613795565b905095945050505050565b60008151905061382981612a0c565b92915050565b6000602082840312156138455761384461293d565b5b60006138538482850161381a565b91505092915050565b60006040820190506138716000830185612b49565b61387e6020830184612bdf565b9392505050565b7f4e487b7100000000000000000000000000000000000000000000000000000000600052601260045260246000fdfea2646970667358221220fde7a614d1030bf830bf5b441090bbd6f77d85540a3b50ddc3a6a6b453bc289864736f6c634300081b0033",
  "linkReferences": {},
  "deployedLinkReferences": {}
}